{"contracts/MessAttendance.sol":{"MessAttendance":{"abi":[{"anonymous":false,"inputs":[{"indexed":true,"internalType":"string","name":"rollNo","type":"string"},{"indexed":false,"internalType":"string","name":"session","type":"string"},{"indexed":false,"internalType":"uint256","name":"timestamp","type":"uint256"}],"name":"AttendanceRecorded","type":"event"},{"anonymous":false,"inputs":[{"indexed":true,"internalType":"uint256","name":"tokenId","type":"uint256"},{"indexed":false,"internalType":"uint256","name":"numPeople","type":"uint256"},{"indexed":false,"internalType":"uint256","name":"purchaseTimestamp","type":"uint256"}],"name":"TokenPurchased","type":"event"},{"anonymous":false,"inputs":[{"indexed":true,"internalType":"uint256","name":"tokenId","type":"uint256"},{"indexed":false,"internalType":"uint256","name":"redeemedCount","type":"uint256"},{"indexed":false,"internalType":"bool","name":"isFullyRedeemed","type":"bool"}],"name":"TokenRedeemed","type":"event"},{"inputs":[{"internalType":"string","name":"","type":"string"}],"name":"attendanceRecords","outputs":[{"internalType":"uint256","name":"morningTimestamp","type":"uint256"},{"internalType":"uint256","name":"afternoonTimestamp","type":"uint256"},{"internalType":"uint256","name":"eveningTimestamp","type":"uint256"}],"stateMutability":"view","type":"function"},{"inputs":[{"internalType":"bytes32","name":"dateHash","type":"bytes32"}],"name":"getMealAttendance","outputs":[{"components":[{"internalType":"uint256","name":"morningCount","type":"uint256"},{"internalType":"uint256","name":"afternoonCount","type":"uint256"},{"internalType":"uint256","name":"eveningCount","type":"uint256"}],"internalType":"struct MessAttendance.MealAttendance","name":"","type":"tuple"}],"stateMutability":"view","type":"function"},{"inputs":[{"internalType":"bytes32","name":"","type":"bytes32"}],"name":"mealAttendanceByDate","outputs":[{"internalType":"uint256","name":"morningCount","type":"uint256"},{"internalType":"uint256","name":"afternoonCount","type":"uint256"},{"internalType":"uint256","name":"eveningCount","type":"uint256"}],"stateMutability":"view","type":"function"},{"inputs":[{"internalType":"uint256","name":"","type":"uint256"}],"name":"mealTokens","outputs":[{"internalType":"uint256","name":"tokenId","type":"uint256"},{"internalType":"uint256","name":"numPeople","type":"uint256"},{"internalType":"uint256","name":"redeemedCount","type":"uint256"},{"internalType":"bool","name":"isFullyRedeemed","type":"bool"},{"internalType":"uint256","name":"purchaseTimestamp","type":"uint256"}],"stateMutability":"view","type":"function"},{"inputs":[{"internalType":"uint256","name":"numPeople","type":"uint256"}],"name":"purchaseToken","outputs":[{"internalType":"uint256","name":"","type":"uint256"}],"stateMutability":"nonpayable","type":"function"},{"inputs":[{"internalType":"string","name":"rollNo","type":"string"},{"internalType":"string","name":"session","type":"string"},{"internalType":"bytes32","name":"dateHash","type":"bytes32"}],"name":"recordAttendance","outputs":[],"stateMutability":"nonpayable","type":"function"},{"inputs":[{"internalType":"uint256","name":"tokenId","type":"uint256"}],"name":"redeemToken","outputs":[],"stateMutability":"nonpayable","type":"function"}],"evm":{"bytecode":{"linkReferences":{},"object":"6080604052600160035534801561001557600080fd5b50611111806100256000396000f3fe608060405234801561001057600080fd5b506004361061007d5760003560e01c8063ad044c5b1161005b578063ad044c5b14610102578063c2db2c421461011e578063e2ece4e41461014e578063f35cc91d146101825761007d565b8063013054c2146100825780635a100a731461009e5780639e1c2fd3146100d0575b600080fd5b61009c600480360381019061009791906107fd565b6101b2565b005b6100b860048036038101906100b39190610970565b6102ff565b6040516100c7939291906109c8565b60405180910390f35b6100ea60048036038101906100e59190610a35565b61033f565b6040516100f9939291906109c8565b60405180910390f35b61011c60048036038101906101179190610a62565b610369565b005b610138600480360381019061013391906107fd565b61060b565b6040516101459190610aed565b60405180910390f35b610168600480360381019061016391906107fd565b610704565b604051610179959493929190610b23565b60405180910390f35b61019c60048036038101906101979190610a35565b610747565b6040516101a99190610bc7565b60405180910390f35b60006001600083815260200190815260200160002090508060030160009054906101000a900460ff161561021b576040517f08c379a000000000000000000000000000000000000000000000000000000000815260040161021290610c3f565b60405180910390fd5b8060010154816002015410610265576040517f08c379a000000000000000000000000000000000000000000000000000000000815260040161025c90610cab565b60405180910390fd5b80600201600081548092919061027a90610cfa565b919050555080600101548160020154036102ac5760018160030160006101000a81548160ff0219169083151502179055505b817f37af21c94510c917e93e302fa77aeacab5f6c64a516c7eba0a9cf3dd98afdf6f82600201548360030160009054906101000a900460ff166040516102f3929190610d42565b60405180910390a25050565b6000818051602081018201805184825260208301602085012081835280955050505050506000915090508060000154908060010154908060020154905083565b60026020528060005260406000206000915090508060000154908060010154908060020154905083565b6000808460405161037a9190610ddc565b9081526020016040518091039020905060006002600084815260200190815260200160002090507feca2298e0063c1b7e5366bc53b37956b8843260818e28d498c19326ea37c06ce84805190602001200361043e576000826000015414610416576040517f08c379a000000000000000000000000000000000000000000000000000000000815260040161040d90610e65565b60405180910390fd5b42826000018190555080600001600081548092919061043490610cfa565b91905055506105b5565b7fff584f894fddc7cd678b4387b989732b4fa35afd47e71f0ba4bce44f619a8d088480519060200120036104db5760008260010154146104b3576040517f08c379a00000000000000000000000000000000000000000000000000000000081526004016104aa90610ef7565b60405180910390fd5b4282600101819055508060010160008154809291906104d190610cfa565b91905055506105b4565b7fd79846417a5aa7ea7cd037f1a935ee97a5da63892600c2ccbe2fc68b60e586cf848051906020012003610578576000826002015414610550576040517f08c379a000000000000000000000000000000000000000000000000000000000815260040161054790610f89565b60405180910390fd5b42826002018190555080600201600081548092919061056e90610cfa565b91905055506105b3565b6040517f08c379a00000000000000000000000000000000000000000000000000000000081526004016105aa90610ff5565b60405180910390fd5b5b5b846040516105c39190610ddc565b60405180910390207feda299a99f24ebc549c00c7314b9b6a4ce955df6959e0558d84d3a33f6cd095c85426040516105fc92919061104e565b60405180910390a25050505050565b60006040518060a001604052806003548152602001838152602001600081526020016000151581526020014281525060016000600354815260200190815260200160002060008201518160000155602082015181600101556040820151816002015560608201518160030160006101000a81548160ff021916908315150217905550608082015181600401559050506003547fa3bfee04adc386a2dc18d7105f1a0b2566f74c4e1db75852784b5ab459941a3183426040516106ce92919061107e565b60405180910390a2600360008154809291906106e990610cfa565b919050555060016003546106fd91906110a7565b9050919050565b60016020528060005260406000206000915090508060000154908060010154908060020154908060030160009054906101000a900460ff16908060040154905085565b61074f610792565b6002600083815260200190815260200160002060405180606001604052908160008201548152602001600182015481526020016002820154815250509050919050565b60405180606001604052806000815260200160008152602001600081525090565b6000604051905090565b600080fd5b600080fd5b6000819050919050565b6107da816107c7565b81146107e557600080fd5b50565b6000813590506107f7816107d1565b92915050565b600060208284031215610813576108126107bd565b5b6000610821848285016107e8565b91505092915050565b600080fd5b600080fd5b6000601f19601f8301169050919050565b7f4e487b7100000000000000000000000000000000000000000000000000000000600052604160045260246000fd5b61087d82610834565b810181811067ffffffffffffffff8211171561089c5761089b610845565b5b80604052505050565b60006108af6107b3565b90506108bb8282610874565b919050565b600067ffffffffffffffff8211156108db576108da610845565b5b6108e482610834565b9050602081019050919050565b82818337600083830152505050565b600061091361090e846108c0565b6108a5565b90508281526020810184848401111561092f5761092e61082f565b5b61093a8482856108f1565b509392505050565b600082601f8301126109575761095661082a565b5b8135610967848260208601610900565b91505092915050565b600060208284031215610986576109856107bd565b5b600082013567ffffffffffffffff8111156109a4576109a36107c2565b5b6109b084828501610942565b91505092915050565b6109c2816107c7565b82525050565b60006060820190506109dd60008301866109b9565b6109ea60208301856109b9565b6109f760408301846109b9565b949350505050565b6000819050919050565b610a12816109ff565b8114610a1d57600080fd5b50565b600081359050610a2f81610a09565b92915050565b600060208284031215610a4b57610a4a6107bd565b5b6000610a5984828501610a20565b91505092915050565b600080600060608486031215610a7b57610a7a6107bd565b5b600084013567ffffffffffffffff811115610a9957610a986107c2565b5b610aa586828701610942565b935050602084013567ffffffffffffffff811115610ac657610ac56107c2565b5b610ad286828701610942565b9250506040610ae386828701610a20565b9150509250925092565b6000602082019050610b0260008301846109b9565b92915050565b60008115159050919050565b610b1d81610b08565b82525050565b600060a082019050610b3860008301886109b9565b610b4560208301876109b9565b610b5260408301866109b9565b610b5f6060830185610b14565b610b6c60808301846109b9565b9695505050505050565b610b7f816107c7565b82525050565b606082016000820151610b9b6000850182610b76565b506020820151610bae6020850182610b76565b506040820151610bc16040850182610b76565b50505050565b6000606082019050610bdc6000830184610b85565b92915050565b600082825260208201905092915050565b7f546f6b656e2069732066756c6c792072656465656d6564000000000000000000600082015250565b6000610c29601783610be2565b9150610c3482610bf3565b602082019050919050565b60006020820190508181036000830152610c5881610c1c565b9050919050565b7f526564656d7074696f6e206c696d697420726561636865640000000000000000600082015250565b6000610c95601883610be2565b9150610ca082610c5f565b602082019050919050565b60006020820190508181036000830152610cc481610c88565b9050919050565b7f4e487b7100000000000000000000000000000000000000000000000000000000600052601160045260246000fd5b6000610d05826107c7565b91507fffffffffffffffffffffffffffffffffffffffffffffffffffffffffffffffff8203610d3757610d36610ccb565b5b600182019050919050565b6000604082019050610d5760008301856109b9565b610d646020830184610b14565b9392505050565b600081519050919050565b600081905092915050565b60005b83811015610d9f578082015181840152602081019050610d84565b60008484015250505050565b6000610db682610d6b565b610dc08185610d76565b9350610dd0818560208601610d81565b80840191505092915050565b6000610de88284610dab565b915081905092915050565b7f4d6f726e696e6720617474656e64616e636520616c7265616479207265636f7260008201527f6465640000000000000000000000000000000000000000000000000000000000602082015250565b6000610e4f602383610be2565b9150610e5a82610df3565b604082019050919050565b60006020820190508181036000830152610e7e81610e42565b9050919050565b7f41667465726e6f6f6e20617474656e64616e636520616c72656164792072656360008201527f6f72646564000000000000000000000000000000000000000000000000000000602082015250565b6000610ee1602583610be2565b9150610eec82610e85565b604082019050919050565b60006020820190508181036000830152610f1081610ed4565b9050919050565b7f4576656e696e6720617474656e64616e636520616c7265616479207265636f7260008201527f6465640000000000000000000000000000000000000000000000000000000000602082015250565b6000610f73602383610be2565b9150610f7e82610f17565b604082019050919050565b60006020820190508181036000830152610fa281610f66565b9050919050565b7f496e76616c69642073657373696f6e0000000000000000000000000000000000600082015250565b6000610fdf600f83610be2565b9150610fea82610fa9565b602082019050919050565b6000602082019050818103600083015261100e81610fd2565b9050919050565b600061102082610d6b565b61102a8185610be2565b935061103a818560208601610d81565b61104381610834565b840191505092915050565b600060408201905081810360008301526110688185611015565b905061107760208301846109b9565b9392505050565b600060408201905061109360008301856109b9565b6110a060208301846109b9565b9392505050565b60006110b2826107c7565b91506110bd836107c7565b92508282039050818111156110d5576110d4610ccb565b5b9291505056fea2646970667358221220d1cdb9fbf83c740ee16b1600218125d8cedcbb4fb97fb1dc7d30ee2aea44775f64736f6c63430008130033","opcodes":"PUSH1 0x80 PUSH1 0x40 MSTORE PUSH1 0x1 PUSH1 0x3 SSTORE CALLVALUE DUP1 ISZERO PUSH2 0x15 JUMPI PUSH1 0x0 DUP1 REVERT JUMPDEST POP PUSH2 0x1111 DUP1 PUSH2 0x25 PUSH1 0x0 CODECOPY PUSH1 0x0 RETURN INVALID PUSH1 0x80 PUSH1 0x40 MSTORE CALLVALUE DUP1 ISZERO PUSH2 0x10 JUMPI PUSH1 0x0 DUP1 REVERT JUMPDEST POP PUSH1 0x4 CALLDATASIZE LT PUSH2 0x7D JUMPI PUSH1 0x0 CALLDATALOAD PUSH1 0xE0 SHR DUP1 PUSH4 0xAD044C5B GT PUSH2 0x5B JUMPI DUP1 PUSH4 0xAD044C5B EQ PUSH2 0x102 JUMPI DUP1 PUSH4 0xC2DB2C42 EQ PUSH2 0x11E JUMPI DUP1 PUSH4 0xE2ECE4E4 EQ PUSH2 0x14E JUMPI DUP1 PUSH4 0xF35CC91D EQ PUSH2 0x182 JUMPI PUSH2 0x7D JUMP JUMPDEST DUP1 PUSH4 0x13054C2 EQ PUSH2 0x82 JUMPI DUP1 PUSH4 0x5A100A73 EQ PUSH2 0x9E JUMPI DUP1 PUSH4 0x9E1C2FD3 EQ PUSH2 0xD0 JUMPI JUMPDEST PUSH1 0x0 DUP1 REVERT JUMPDEST PUSH2 0x9C PUSH1 0x4 DUP1 CALLDATASIZE SUB DUP2 ADD SWAP1 PUSH2 0x97 SWAP2 SWAP1 PUSH2 0x7FD JUMP JUMPDEST PUSH2 0x1B2 JUMP JUMPDEST STOP JUMPDEST PUSH2 0xB8 PUSH1 0x4 DUP1 CALLDATASIZE SUB DUP2 ADD SWAP1 PUSH2 0xB3 SWAP2 SWAP1 PUSH2 0x970 JUMP JUMPDEST PUSH2 0x2FF JUMP JUMPDEST PUSH1 0x40 MLOAD PUSH2 0xC7 SWAP4 SWAP3 SWAP2 SWAP1 PUSH2 0x9C8 JUMP JUMPDEST PUSH1 0x40 MLOAD DUP1 SWAP2 SUB SWAP1 RETURN JUMPDEST PUSH2 0xEA PUSH1 0x4 DUP1 CALLDATASIZE SUB DUP2 ADD SWAP1 PUSH2 0xE5 SWAP2 SWAP1 PUSH2 0xA35 JUMP JUMPDEST PUSH2 0x33F JUMP JUMPDEST PUSH1 0x40 MLOAD PUSH2 0xF9 SWAP4 SWAP3 SWAP2 SWAP1 PUSH2 0x9C8 JUMP JUMPDEST PUSH1 0x40 MLOAD DUP1 SWAP2 SUB SWAP1 RETURN JUMPDEST PUSH2 0x11C PUSH1 0x4 DUP1 CALLDATASIZE SUB DUP2 ADD SWAP1 PUSH2 0x117 SWAP2 SWAP1 PUSH2 0xA62 JUMP JUMPDEST PUSH2 0x369 JUMP JUMPDEST STOP JUMPDEST PUSH2 0x138 PUSH1 0x4 DUP1 CALLDATASIZE SUB DUP2 ADD SWAP1 PUSH2 0x133 SWAP2 SWAP1 PUSH2 0x7FD JUMP JUMPDEST PUSH2 0x60B JUMP JUMPDEST PUSH1 0x40 MLOAD PUSH2 0x145 SWAP2 SWAP1 PUSH2 0xAED JUMP JUMPDEST PUSH1 0x40 MLOAD DUP1 SWAP2 SUB SWAP1 RETURN JUMPDEST PUSH2 0x168 PUSH1 0x4 DUP1 CALLDATASIZE SUB DUP2 ADD SWAP1 PUSH2 0x163 SWAP2 SWAP1 PUSH2 0x7FD JUMP JUMPDEST PUSH2 0x704 JUMP JUMPDEST PUSH1 0x40 MLOAD PUSH2 0x179 SWAP6 SWAP5 SWAP4 SWAP3 SWAP2 SWAP1 PUSH2 0xB23 JUMP JUMPDEST PUSH1 0x40 MLOAD DUP1 SWAP2 SUB SWAP1 RETURN JUMPDEST PUSH2 0x19C PUSH1 0x4 DUP1 CALLDATASIZE SUB DUP2 ADD SWAP1 PUSH2 0x197 SWAP2 SWAP1 PUSH2 0xA35 JUMP JUMPDEST PUSH2 0x747 JUMP JUMPDEST PUSH1 0x40 MLOAD PUSH2 0x1A9 SWAP2 SWAP1 PUSH2 0xBC7 JUMP JUMPDEST PUSH1 0x40 MLOAD DUP1 SWAP2 SUB SWAP1 RETURN JUMPDEST PUSH1 0x0 PUSH1 0x1 PUSH1 0x0 DUP4 DUP2 MSTORE PUSH1 0x20 ADD SWAP1 DUP2 MSTORE PUSH1 0x20 ADD PUSH1 0x0 KECCAK256 SWAP1 POP DUP1 PUSH1 0x3 ADD PUSH1 0x0 SWAP1 SLOAD SWAP1 PUSH2 0x100 EXP SWAP1 DIV PUSH1 0xFF AND ISZERO PUSH2 0x21B JUMPI PUSH1 0x40 MLOAD PUSH32 0x8C379A000000000000000000000000000000000000000000000000000000000 DUP2 MSTORE PUSH1 0x4 ADD PUSH2 0x212 SWAP1 PUSH2 0xC3F JUMP JUMPDEST PUSH1 0x40 MLOAD DUP1 SWAP2 SUB SWAP1 REVERT JUMPDEST DUP1 PUSH1 0x1 ADD SLOAD DUP2 PUSH1 0x2 ADD SLOAD LT PUSH2 0x265 JUMPI PUSH1 0x40 MLOAD PUSH32 0x8C379A000000000000000000000000000000000000000000000000000000000 DUP2 MSTORE PUSH1 0x4 ADD PUSH2 0x25C SWAP1 PUSH2 0xCAB JUMP JUMPDEST PUSH1 0x40 MLOAD DUP1 SWAP2 SUB SWAP1 REVERT JUMPDEST DUP1 PUSH1 0x2 ADD PUSH1 0x0 DUP2 SLOAD DUP1 SWAP3 SWAP2 SWAP1 PUSH2 0x27A SWAP1 PUSH2 0xCFA JUMP JUMPDEST SWAP2 SWAP1 POP SSTORE POP DUP1 PUSH1 0x1 ADD SLOAD DUP2 PUSH1 0x2 ADD SLOAD SUB PUSH2 0x2AC JUMPI PUSH1 0x1 DUP2 PUSH1 0x3 ADD PUSH1 0x0 PUSH2 0x100 EXP DUP2 SLOAD DUP2 PUSH1 0xFF MUL NOT AND SWAP1 DUP4 ISZERO ISZERO MUL OR SWAP1 SSTORE POP JUMPDEST DUP2 PUSH32 0x37AF21C94510C917E93E302FA77AEACAB5F6C64A516C7EBA0A9CF3DD98AFDF6F DUP3 PUSH1 0x2 ADD SLOAD DUP4 PUSH1 0x3 ADD PUSH1 0x0 SWAP1 SLOAD SWAP1 PUSH2 0x100 EXP SWAP1 DIV PUSH1 0xFF AND PUSH1 0x40 MLOAD PUSH2 0x2F3 SWAP3 SWAP2 SWAP1 PUSH2 0xD42 JUMP JUMPDEST PUSH1 0x40 MLOAD DUP1 SWAP2 SUB SWAP1 LOG2 POP POP JUMP JUMPDEST PUSH1 0x0 DUP2 DUP1 MLOAD PUSH1 0x20 DUP2 ADD DUP3 ADD DUP1 MLOAD DUP5 DUP3 MSTORE PUSH1 0x20 DUP4 ADD PUSH1 0x20 DUP6 ADD KECCAK256 DUP2 DUP4 MSTORE DUP1 SWAP6 POP POP POP POP POP POP PUSH1 0x0 SWAP2 POP SWAP1 POP DUP1 PUSH1 0x0 ADD SLOAD SWAP1 DUP1 PUSH1 0x1 ADD SLOAD SWAP1 DUP1 PUSH1 0x2 ADD SLOAD SWAP1 POP DUP4 JUMP JUMPDEST PUSH1 0x2 PUSH1 0x20 MSTORE DUP1 PUSH1 0x0 MSTORE PUSH1 0x40 PUSH1 0x0 KECCAK256 PUSH1 0x0 SWAP2 POP SWAP1 POP DUP1 PUSH1 0x0 ADD SLOAD SWAP1 DUP1 PUSH1 0x1 ADD SLOAD SWAP1 DUP1 PUSH1 0x2 ADD SLOAD SWAP1 POP DUP4 JUMP JUMPDEST PUSH1 0x0 DUP1 DUP5 PUSH1 0x40 MLOAD PUSH2 0x37A SWAP2 SWAP1 PUSH2 0xDDC JUMP JUMPDEST SWAP1 DUP2 MSTORE PUSH1 0x20 ADD PUSH1 0x40 MLOAD DUP1 SWAP2 SUB SWAP1 KECCAK256 SWAP1 POP PUSH1 0x0 PUSH1 0x2 PUSH1 0x0 DUP5 DUP2 MSTORE PUSH1 0x20 ADD SWAP1 DUP2 MSTORE PUSH1 0x20 ADD PUSH1 0x0 KECCAK256 SWAP1 POP PUSH32 0xECA2298E0063C1B7E5366BC53B37956B8843260818E28D498C19326EA37C06CE DUP5 DUP1 MLOAD SWAP1 PUSH1 0x20 ADD KECCAK256 SUB PUSH2 0x43E JUMPI PUSH1 0x0 DUP3 PUSH1 0x0 ADD SLOAD EQ PUSH2 0x416 JUMPI PUSH1 0x40 MLOAD PUSH32 0x8C379A000000000000000000000000000000000000000000000000000000000 DUP2 MSTORE PUSH1 0x4 ADD PUSH2 0x40D SWAP1 PUSH2 0xE65 JUMP JUMPDEST PUSH1 0x40 MLOAD DUP1 SWAP2 SUB SWAP1 REVERT JUMPDEST TIMESTAMP DUP3 PUSH1 0x0 ADD DUP2 SWAP1 SSTORE POP DUP1 PUSH1 0x0 ADD PUSH1 0x0 DUP2 SLOAD DUP1 SWAP3 SWAP2 SWAP1 PUSH2 0x434 SWAP1 PUSH2 0xCFA JUMP JUMPDEST SWAP2 SWAP1 POP SSTORE POP PUSH2 0x5B5 JUMP JUMPDEST PUSH32 0xFF584F894FDDC7CD678B4387B989732B4FA35AFD47E71F0BA4BCE44F619A8D08 DUP5 DUP1 MLOAD SWAP1 PUSH1 0x20 ADD KECCAK256 SUB PUSH2 0x4DB JUMPI PUSH1 0x0 DUP3 PUSH1 0x1 ADD SLOAD EQ PUSH2 0x4B3 JUMPI PUSH1 0x40 MLOAD PUSH32 0x8C379A000000000000000000000000000000000000000000000000000000000 DUP2 MSTORE PUSH1 0x4 ADD PUSH2 0x4AA SWAP1 PUSH2 0xEF7 JUMP JUMPDEST PUSH1 0x40 MLOAD DUP1 SWAP2 SUB SWAP1 REVERT JUMPDEST TIMESTAMP DUP3 PUSH1 0x1 ADD DUP2 SWAP1 SSTORE POP DUP1 PUSH1 0x1 ADD PUSH1 0x0 DUP2 SLOAD DUP1 SWAP3 SWAP2 SWAP1 PUSH2 0x4D1 SWAP1 PUSH2 0xCFA JUMP JUMPDEST SWAP2 SWAP1 POP SSTORE POP PUSH2 0x5B4 JUMP JUMPDEST PUSH32 0xD79846417A5AA7EA7CD037F1A935EE97A5DA63892600C2CCBE2FC68B60E586CF DUP5 DUP1 MLOAD SWAP1 PUSH1 0x20 ADD KECCAK256 SUB PUSH2 0x578 JUMPI PUSH1 0x0 DUP3 PUSH1 0x2 ADD SLOAD EQ PUSH2 0x550 JUMPI PUSH1 0x40 MLOAD PUSH32 0x8C379A000000000000000000000000000000000000000000000000000000000 DUP2 MSTORE PUSH1 0x4 ADD PUSH2 0x547 SWAP1 PUSH2 0xF89 JUMP JUMPDEST PUSH1 0x40 MLOAD DUP1 SWAP2 SUB SWAP1 REVERT JUMPDEST TIMESTAMP DUP3 PUSH1 0x2 ADD DUP2 SWAP1 SSTORE POP DUP1 PUSH1 0x2 ADD PUSH1 0x0 DUP2 SLOAD DUP1 SWAP3 SWAP2 SWAP1 PUSH2 0x56E SWAP1 PUSH2 0xCFA JUMP JUMPDEST SWAP2 SWAP1 POP SSTORE POP PUSH2 0x5B3 JUMP JUMPDEST PUSH1 0x40 MLOAD PUSH32 0x8C379A000000000000000000000000000000000000000000000000000000000 DUP2 MSTORE PUSH1 0x4 ADD PUSH2 0x5AA SWAP1 PUSH2 0xFF5 JUMP JUMPDEST PUSH1 0x40 MLOAD DUP1 SWAP2 SUB SWAP1 REVERT JUMPDEST JUMPDEST JUMPDEST DUP5 PUSH1 0x40 MLOAD PUSH2 0x5C3 SWAP2 SWAP1 PUSH2 0xDDC JUMP JUMPDEST PUSH1 0x40 MLOAD DUP1 SWAP2 SUB SWAP1 KECCAK256 PUSH32 0xEDA299A99F24EBC549C00C7314B9B6A4CE955DF6959E0558D84D3A33F6CD095C DUP6 TIMESTAMP PUSH1 0x40 MLOAD PUSH2 0x5FC SWAP3 SWAP2 SWAP1 PUSH2 0x104E JUMP JUMPDEST PUSH1 0x40 MLOAD DUP1 SWAP2 SUB SWAP1 LOG2 POP POP POP POP POP JUMP JUMPDEST PUSH1 0x0 PUSH1 0x40 MLOAD DUP1 PUSH1 0xA0 ADD PUSH1 0x40 MSTORE DUP1 PUSH1 0x3 SLOAD DUP2 MSTORE PUSH1 0x20 ADD DUP4 DUP2 MSTORE PUSH1 0x20 ADD PUSH1 0x0 DUP2 MSTORE PUSH1 0x20 ADD PUSH1 0x0 ISZERO ISZERO DUP2 MSTORE PUSH1 0x20 ADD TIMESTAMP DUP2 MSTORE POP PUSH1 0x1 PUSH1 0x0 PUSH1 0x3 SLOAD DUP2 MSTORE PUSH1 0x20 ADD SWAP1 DUP2 MSTORE PUSH1 0x20 ADD PUSH1 0x0 KECCAK256 PUSH1 0x0 DUP3 ADD MLOAD DUP2 PUSH1 0x0 ADD SSTORE PUSH1 0x20 DUP3 ADD MLOAD DUP2 PUSH1 0x1 ADD SSTORE PUSH1 0x40 DUP3 ADD MLOAD DUP2 PUSH1 0x2 ADD SSTORE PUSH1 0x60 DUP3 ADD MLOAD DUP2 PUSH1 0x3 ADD PUSH1 0x0 PUSH2 0x100 EXP DUP2 SLOAD DUP2 PUSH1 0xFF MUL NOT AND SWAP1 DUP4 ISZERO ISZERO MUL OR SWAP1 SSTORE POP PUSH1 0x80 DUP3 ADD MLOAD DUP2 PUSH1 0x4 ADD SSTORE SWAP1 POP POP PUSH1 0x3 SLOAD PUSH32 0xA3BFEE04ADC386A2DC18D7105F1A0B2566F74C4E1DB75852784B5AB459941A31 DUP4 TIMESTAMP PUSH1 0x40 MLOAD PUSH2 0x6CE SWAP3 SWAP2 SWAP1 PUSH2 0x107E JUMP JUMPDEST PUSH1 0x40 MLOAD DUP1 SWAP2 SUB SWAP1 LOG2 PUSH1 0x3 PUSH1 0x0 DUP2 SLOAD DUP1 SWAP3 SWAP2 SWAP1 PUSH2 0x6E9 SWAP1 PUSH2 0xCFA JUMP JUMPDEST SWAP2 SWAP1 POP SSTORE POP PUSH1 0x1 PUSH1 0x3 SLOAD PUSH2 0x6FD SWAP2 SWAP1 PUSH2 0x10A7 JUMP JUMPDEST SWAP1 POP SWAP2 SWAP1 POP JUMP JUMPDEST PUSH1 0x1 PUSH1 0x20 MSTORE DUP1 PUSH1 0x0 MSTORE PUSH1 0x40 PUSH1 0x0 KECCAK256 PUSH1 0x0 SWAP2 POP SWAP1 POP DUP1 PUSH1 0x0 ADD SLOAD SWAP1 DUP1 PUSH1 0x1 ADD SLOAD SWAP1 DUP1 PUSH1 0x2 ADD SLOAD SWAP1 DUP1 PUSH1 0x3 ADD PUSH1 0x0 SWAP1 SLOAD SWAP1 PUSH2 0x100 EXP SWAP1 DIV PUSH1 0xFF AND SWAP1 DUP1 PUSH1 0x4 ADD SLOAD SWAP1 POP DUP6 JUMP JUMPDEST PUSH2 0x74F PUSH2 0x792 JUMP JUMPDEST PUSH1 0x2 PUSH1 0x0 DUP4 DUP2 MSTORE PUSH1 0x20 ADD SWAP1 DUP2 MSTORE PUSH1 0x20 ADD PUSH1 0x0 KECCAK256 PUSH1 0x40 MLOAD DUP1 PUSH1 0x60 ADD PUSH1 0x40 MSTORE SWAP1 DUP2 PUSH1 0x0 DUP3 ADD SLOAD DUP2 MSTORE PUSH1 0x20 ADD PUSH1 0x1 DUP3 ADD SLOAD DUP2 MSTORE PUSH1 0x20 ADD PUSH1 0x2 DUP3 ADD SLOAD DUP2 MSTORE POP POP SWAP1 POP SWAP2 SWAP1 POP JUMP JUMPDEST PUSH1 0x40 MLOAD DUP1 PUSH1 0x60 ADD PUSH1 0x40 MSTORE DUP1 PUSH1 0x0 DUP2 MSTORE PUSH1 0x20 ADD PUSH1 0x0 DUP2 MSTORE PUSH1 0x20 ADD PUSH1 0x0 DUP2 MSTORE POP SWAP1 JUMP JUMPDEST PUSH1 0x0 PUSH1 0x40 MLOAD SWAP1 POP SWAP1 JUMP JUMPDEST PUSH1 0x0 DUP1 REVERT JUMPDEST PUSH1 0x0 DUP1 REVERT JUMPDEST PUSH1 0x0 DUP2 SWAP1 POP SWAP2 SWAP1 POP JUMP JUMPDEST PUSH2 0x7DA DUP2 PUSH2 0x7C7 JUMP JUMPDEST DUP2 EQ PUSH2 0x7E5 JUMPI PUSH1 0x0 DUP1 REVERT JUMPDEST POP JUMP JUMPDEST PUSH1 0x0 DUP2 CALLDATALOAD SWAP1 POP PUSH2 0x7F7 DUP2 PUSH2 0x7D1 JUMP JUMPDEST SWAP3 SWAP2 POP POP JUMP JUMPDEST PUSH1 0x0 PUSH1 0x20 DUP3 DUP5 SUB SLT ISZERO PUSH2 0x813 JUMPI PUSH2 0x812 PUSH2 0x7BD JUMP JUMPDEST JUMPDEST PUSH1 0x0 PUSH2 0x821 DUP5 DUP3 DUP6 ADD PUSH2 0x7E8 JUMP JUMPDEST SWAP2 POP POP SWAP3 SWAP2 POP POP JUMP JUMPDEST PUSH1 0x0 DUP1 REVERT JUMPDEST PUSH1 0x0 DUP1 REVERT JUMPDEST PUSH1 0x0 PUSH1 0x1F NOT PUSH1 0x1F DUP4 ADD AND SWAP1 POP SWAP2 SWAP1 POP JUMP JUMPDEST PUSH32 0x4E487B7100000000000000000000000000000000000000000000000000000000 PUSH1 0x0 MSTORE PUSH1 0x41 PUSH1 0x4 MSTORE PUSH1 0x24 PUSH1 0x0 REVERT JUMPDEST PUSH2 0x87D DUP3 PUSH2 0x834 JUMP JUMPDEST DUP2 ADD DUP2 DUP2 LT PUSH8 0xFFFFFFFFFFFFFFFF DUP3 GT OR ISZERO PUSH2 0x89C JUMPI PUSH2 0x89B PUSH2 0x845 JUMP JUMPDEST JUMPDEST DUP1 PUSH1 0x40 MSTORE POP POP POP JUMP JUMPDEST PUSH1 0x0 PUSH2 0x8AF PUSH2 0x7B3 JUMP JUMPDEST SWAP1 POP PUSH2 0x8BB DUP3 DUP3 PUSH2 0x874 JUMP JUMPDEST SWAP2 SWAP1 POP JUMP JUMPDEST PUSH1 0x0 PUSH8 0xFFFFFFFFFFFFFFFF DUP3 GT ISZERO PUSH2 0x8DB JUMPI PUSH2 0x8DA PUSH2 0x845 JUMP JUMPDEST JUMPDEST PUSH2 0x8E4 DUP3 PUSH2 0x834 JUMP JUMPDEST SWAP1 POP PUSH1 0x20 DUP2 ADD SWAP1 POP SWAP2 SWAP1 POP JUMP JUMPDEST DUP3 DUP2 DUP4 CALLDATACOPY PUSH1 0x0 DUP4 DUP4 ADD MSTORE POP POP POP JUMP JUMPDEST PUSH1 0x0 PUSH2 0x913 PUSH2 0x90E DUP5 PUSH2 0x8C0 JUMP JUMPDEST PUSH2 0x8A5 JUMP JUMPDEST SWAP1 POP DUP3 DUP2 MSTORE PUSH1 0x20 DUP2 ADD DUP5 DUP5 DUP5 ADD GT ISZERO PUSH2 0x92F JUMPI PUSH2 0x92E PUSH2 0x82F JUMP JUMPDEST JUMPDEST PUSH2 0x93A DUP5 DUP3 DUP6 PUSH2 0x8F1 JUMP JUMPDEST POP SWAP4 SWAP3 POP POP POP JUMP JUMPDEST PUSH1 0x0 DUP3 PUSH1 0x1F DUP4 ADD SLT PUSH2 0x957 JUMPI PUSH2 0x956 PUSH2 0x82A JUMP JUMPDEST JUMPDEST DUP2 CALLDATALOAD PUSH2 0x967 DUP5 DUP3 PUSH1 0x20 DUP7 ADD PUSH2 0x900 JUMP JUMPDEST SWAP2 POP POP SWAP3 SWAP2 POP POP JUMP JUMPDEST PUSH1 0x0 PUSH1 0x20 DUP3 DUP5 SUB SLT ISZERO PUSH2 0x986 JUMPI PUSH2 0x985 PUSH2 0x7BD JUMP JUMPDEST JUMPDEST PUSH1 0x0 DUP3 ADD CALLDATALOAD PUSH8 0xFFFFFFFFFFFFFFFF DUP2 GT ISZERO PUSH2 0x9A4 JUMPI PUSH2 0x9A3 PUSH2 0x7C2 JUMP JUMPDEST JUMPDEST PUSH2 0x9B0 DUP5 DUP3 DUP6 ADD PUSH2 0x942 JUMP JUMPDEST SWAP2 POP POP SWAP3 SWAP2 POP POP JUMP JUMPDEST PUSH2 0x9C2 DUP2 PUSH2 0x7C7 JUMP JUMPDEST DUP3 MSTORE POP POP JUMP JUMPDEST PUSH1 0x0 PUSH1 0x60 DUP3 ADD SWAP1 POP PUSH2 0x9DD PUSH1 0x0 DUP4 ADD DUP7 PUSH2 0x9B9 JUMP JUMPDEST PUSH2 0x9EA PUSH1 0x20 DUP4 ADD DUP6 PUSH2 0x9B9 JUMP JUMPDEST PUSH2 0x9F7 PUSH1 0x40 DUP4 ADD DUP5 PUSH2 0x9B9 JUMP JUMPDEST SWAP5 SWAP4 POP POP POP POP JUMP JUMPDEST PUSH1 0x0 DUP2 SWAP1 POP SWAP2 SWAP1 POP JUMP JUMPDEST PUSH2 0xA12 DUP2 PUSH2 0x9FF JUMP JUMPDEST DUP2 EQ PUSH2 0xA1D JUMPI PUSH1 0x0 DUP1 REVERT JUMPDEST POP JUMP JUMPDEST PUSH1 0x0 DUP2 CALLDATALOAD SWAP1 POP PUSH2 0xA2F DUP2 PUSH2 0xA09 JUMP JUMPDEST SWAP3 SWAP2 POP POP JUMP JUMPDEST PUSH1 0x0 PUSH1 0x20 DUP3 DUP5 SUB SLT ISZERO PUSH2 0xA4B JUMPI PUSH2 0xA4A PUSH2 0x7BD JUMP JUMPDEST JUMPDEST PUSH1 0x0 PUSH2 0xA59 DUP5 DUP3 DUP6 ADD PUSH2 0xA20 JUMP JUMPDEST SWAP2 POP POP SWAP3 SWAP2 POP POP JUMP JUMPDEST PUSH1 0x0 DUP1 PUSH1 0x0 PUSH1 0x60 DUP5 DUP7 SUB SLT ISZERO PUSH2 0xA7B JUMPI PUSH2 0xA7A PUSH2 0x7BD JUMP JUMPDEST JUMPDEST PUSH1 0x0 DUP5 ADD CALLDATALOAD PUSH8 0xFFFFFFFFFFFFFFFF DUP2 GT ISZERO PUSH2 0xA99 JUMPI PUSH2 0xA98 PUSH2 0x7C2 JUMP JUMPDEST JUMPDEST PUSH2 0xAA5 DUP7 DUP3 DUP8 ADD PUSH2 0x942 JUMP JUMPDEST SWAP4 POP POP PUSH1 0x20 DUP5 ADD CALLDATALOAD PUSH8 0xFFFFFFFFFFFFFFFF DUP2 GT ISZERO PUSH2 0xAC6 JUMPI PUSH2 0xAC5 PUSH2 0x7C2 JUMP JUMPDEST JUMPDEST PUSH2 0xAD2 DUP7 DUP3 DUP8 ADD PUSH2 0x942 JUMP JUMPDEST SWAP3 POP POP PUSH1 0x40 PUSH2 0xAE3 DUP7 DUP3 DUP8 ADD PUSH2 0xA20 JUMP JUMPDEST SWAP2 POP POP SWAP3 POP SWAP3 POP SWAP3 JUMP JUMPDEST PUSH1 0x0 PUSH1 0x20 DUP3 ADD SWAP1 POP PUSH2 0xB02 PUSH1 0x0 DUP4 ADD DUP5 PUSH2 0x9B9 JUMP JUMPDEST SWAP3 SWAP2 POP POP JUMP JUMPDEST PUSH1 0x0 DUP2 ISZERO ISZERO SWAP1 POP SWAP2 SWAP1 POP JUMP JUMPDEST PUSH2 0xB1D DUP2 PUSH2 0xB08 JUMP JUMPDEST DUP3 MSTORE POP POP JUMP JUMPDEST PUSH1 0x0 PUSH1 0xA0 DUP3 ADD SWAP1 POP PUSH2 0xB38 PUSH1 0x0 DUP4 ADD DUP9 PUSH2 0x9B9 JUMP JUMPDEST PUSH2 0xB45 PUSH1 0x20 DUP4 ADD DUP8 PUSH2 0x9B9 JUMP JUMPDEST PUSH2 0xB52 PUSH1 0x40 DUP4 ADD DUP7 PUSH2 0x9B9 JUMP JUMPDEST PUSH2 0xB5F PUSH1 0x60 DUP4 ADD DUP6 PUSH2 0xB14 JUMP JUMPDEST PUSH2 0xB6C PUSH1 0x80 DUP4 ADD DUP5 PUSH2 0x9B9 JUMP JUMPDEST SWAP7 SWAP6 POP POP POP POP POP POP JUMP JUMPDEST PUSH2 0xB7F DUP2 PUSH2 0x7C7 JUMP JUMPDEST DUP3 MSTORE POP POP JUMP JUMPDEST PUSH1 0x60 DUP3 ADD PUSH1 0x0 DUP3 ADD MLOAD PUSH2 0xB9B PUSH1 0x0 DUP6 ADD DUP3 PUSH2 0xB76 JUMP JUMPDEST POP PUSH1 0x20 DUP3 ADD MLOAD PUSH2 0xBAE PUSH1 0x20 DUP6 ADD DUP3 PUSH2 0xB76 JUMP JUMPDEST POP PUSH1 0x40 DUP3 ADD MLOAD PUSH2 0xBC1 PUSH1 0x40 DUP6 ADD DUP3 PUSH2 0xB76 JUMP JUMPDEST POP POP POP POP JUMP JUMPDEST PUSH1 0x0 PUSH1 0x60 DUP3 ADD SWAP1 POP PUSH2 0xBDC PUSH1 0x0 DUP4 ADD DUP5 PUSH2 0xB85 JUMP JUMPDEST SWAP3 SWAP2 POP POP JUMP JUMPDEST PUSH1 0x0 DUP3 DUP3 MSTORE PUSH1 0x20 DUP3 ADD SWAP1 POP SWAP3 SWAP2 POP POP JUMP JUMPDEST PUSH32 0x546F6B656E2069732066756C6C792072656465656D6564000000000000000000 PUSH1 0x0 DUP3 ADD MSTORE POP JUMP JUMPDEST PUSH1 0x0 PUSH2 0xC29 PUSH1 0x17 DUP4 PUSH2 0xBE2 JUMP JUMPDEST SWAP2 POP PUSH2 0xC34 DUP3 PUSH2 0xBF3 JUMP JUMPDEST PUSH1 0x20 DUP3 ADD SWAP1 POP SWAP2 SWAP1 POP JUMP JUMPDEST PUSH1 0x0 PUSH1 0x20 DUP3 ADD SWAP1 POP DUP2 DUP2 SUB PUSH1 0x0 DUP4 ADD MSTORE PUSH2 0xC58 DUP2 PUSH2 0xC1C JUMP JUMPDEST SWAP1 POP SWAP2 SWAP1 POP JUMP JUMPDEST PUSH32 0x526564656D7074696F6E206C696D697420726561636865640000000000000000 PUSH1 0x0 DUP3 ADD MSTORE POP JUMP JUMPDEST PUSH1 0x0 PUSH2 0xC95 PUSH1 0x18 DUP4 PUSH2 0xBE2 JUMP JUMPDEST SWAP2 POP PUSH2 0xCA0 DUP3 PUSH2 0xC5F JUMP JUMPDEST PUSH1 0x20 DUP3 ADD SWAP1 POP SWAP2 SWAP1 POP JUMP JUMPDEST PUSH1 0x0 PUSH1 0x20 DUP3 ADD SWAP1 POP DUP2 DUP2 SUB PUSH1 0x0 DUP4 ADD MSTORE PUSH2 0xCC4 DUP2 PUSH2 0xC88 JUMP JUMPDEST SWAP1 POP SWAP2 SWAP1 POP JUMP JUMPDEST PUSH32 0x4E487B7100000000000000000000000000000000000000000000000000000000 PUSH1 0x0 MSTORE PUSH1 0x11 PUSH1 0x4 MSTORE PUSH1 0x24 PUSH1 0x0 REVERT JUMPDEST PUSH1 0x0 PUSH2 0xD05 DUP3 PUSH2 0x7C7 JUMP JUMPDEST SWAP2 POP PUSH32 0xFFFFFFFFFFFFFFFFFFFFFFFFFFFFFFFFFFFFFFFFFFFFFFFFFFFFFFFFFFFFFFFF DUP3 SUB PUSH2 0xD37 JUMPI PUSH2 0xD36 PUSH2 0xCCB JUMP JUMPDEST JUMPDEST PUSH1 0x1 DUP3 ADD SWAP1 POP SWAP2 SWAP1 POP JUMP JUMPDEST PUSH1 0x0 PUSH1 0x40 DUP3 ADD SWAP1 POP PUSH2 0xD57 PUSH1 0x0 DUP4 ADD DUP6 PUSH2 0x9B9 JUMP JUMPDEST PUSH2 0xD64 PUSH1 0x20 DUP4 ADD DUP5 PUSH2 0xB14 JUMP JUMPDEST SWAP4 SWAP3 POP POP POP JUMP JUMPDEST PUSH1 0x0 DUP2 MLOAD SWAP1 POP SWAP2 SWAP1 POP JUMP JUMPDEST PUSH1 0x0 DUP2 SWAP1 POP SWAP3 SWAP2 POP POP JUMP JUMPDEST PUSH1 0x0 JUMPDEST DUP4 DUP2 LT ISZERO PUSH2 0xD9F JUMPI DUP1 DUP3 ADD MLOAD DUP2 DUP5 ADD MSTORE PUSH1 0x20 DUP2 ADD SWAP1 POP PUSH2 0xD84 JUMP JUMPDEST PUSH1 0x0 DUP5 DUP5 ADD MSTORE POP POP POP POP JUMP JUMPDEST PUSH1 0x0 PUSH2 0xDB6 DUP3 PUSH2 0xD6B JUMP JUMPDEST PUSH2 0xDC0 DUP2 DUP6 PUSH2 0xD76 JUMP JUMPDEST SWAP4 POP PUSH2 0xDD0 DUP2 DUP6 PUSH1 0x20 DUP7 ADD PUSH2 0xD81 JUMP JUMPDEST DUP1 DUP5 ADD SWAP2 POP POP SWAP3 SWAP2 POP POP JUMP JUMPDEST PUSH1 0x0 PUSH2 0xDE8 DUP3 DUP5 PUSH2 0xDAB JUMP JUMPDEST SWAP2 POP DUP2 SWAP1 POP SWAP3 SWAP2 POP POP JUMP JUMPDEST PUSH32 0x4D6F726E696E6720617474656E64616E636520616C7265616479207265636F72 PUSH1 0x0 DUP3 ADD MSTORE PUSH32 0x6465640000000000000000000000000000000000000000000000000000000000 PUSH1 0x20 DUP3 ADD MSTORE POP JUMP JUMPDEST PUSH1 0x0 PUSH2 0xE4F PUSH1 0x23 DUP4 PUSH2 0xBE2 JUMP JUMPDEST SWAP2 POP PUSH2 0xE5A DUP3 PUSH2 0xDF3 JUMP JUMPDEST PUSH1 0x40 DUP3 ADD SWAP1 POP SWAP2 SWAP1 POP JUMP JUMPDEST PUSH1 0x0 PUSH1 0x20 DUP3 ADD SWAP1 POP DUP2 DUP2 SUB PUSH1 0x0 DUP4 ADD MSTORE PUSH2 0xE7E DUP2 PUSH2 0xE42 JUMP JUMPDEST SWAP1 POP SWAP2 SWAP1 POP JUMP JUMPDEST PUSH32 0x41667465726E6F6F6E20617474656E64616E636520616C726561647920726563 PUSH1 0x0 DUP3 ADD MSTORE PUSH32 0x6F72646564000000000000000000000000000000000000000000000000000000 PUSH1 0x20 DUP3 ADD MSTORE POP JUMP JUMPDEST PUSH1 0x0 PUSH2 0xEE1 PUSH1 0x25 DUP4 PUSH2 0xBE2 JUMP JUMPDEST SWAP2 POP PUSH2 0xEEC DUP3 PUSH2 0xE85 JUMP JUMPDEST PUSH1 0x40 DUP3 ADD SWAP1 POP SWAP2 SWAP1 POP JUMP JUMPDEST PUSH1 0x0 PUSH1 0x20 DUP3 ADD SWAP1 POP DUP2 DUP2 SUB PUSH1 0x0 DUP4 ADD MSTORE PUSH2 0xF10 DUP2 PUSH2 0xED4 JUMP JUMPDEST SWAP1 POP SWAP2 SWAP1 POP JUMP JUMPDEST PUSH32 0x4576656E696E6720617474656E64616E636520616C7265616479207265636F72 PUSH1 0x0 DUP3 ADD MSTORE PUSH32 0x6465640000000000000000000000000000000000000000000000000000000000 PUSH1 0x20 DUP3 ADD MSTORE POP JUMP JUMPDEST PUSH1 0x0 PUSH2 0xF73 PUSH1 0x23 DUP4 PUSH2 0xBE2 JUMP JUMPDEST SWAP2 POP PUSH2 0xF7E DUP3 PUSH2 0xF17 JUMP JUMPDEST PUSH1 0x40 DUP3 ADD SWAP1 POP SWAP2 SWAP1 POP JUMP JUMPDEST PUSH1 0x0 PUSH1 0x20 DUP3 ADD SWAP1 POP DUP2 DUP2 SUB PUSH1 0x0 DUP4 ADD MSTORE PUSH2 0xFA2 DUP2 PUSH2 0xF66 JUMP JUMPDEST SWAP1 POP SWAP2 SWAP1 POP JUMP JUMPDEST PUSH32 0x496E76616C69642073657373696F6E0000000000000000000000000000000000 PUSH1 0x0 DUP3 ADD MSTORE POP JUMP JUMPDEST PUSH1 0x0 PUSH2 0xFDF PUSH1 0xF DUP4 PUSH2 0xBE2 JUMP JUMPDEST SWAP2 POP PUSH2 0xFEA DUP3 PUSH2 0xFA9 JUMP JUMPDEST PUSH1 0x20 DUP3 ADD SWAP1 POP SWAP2 SWAP1 POP JUMP JUMPDEST PUSH1 0x0 PUSH1 0x20 DUP3 ADD SWAP1 POP DUP2 DUP2 SUB PUSH1 0x0 DUP4 ADD MSTORE PUSH2 0x100E DUP2 PUSH2 0xFD2 JUMP JUMPDEST SWAP1 POP SWAP2 SWAP1 POP JUMP JUMPDEST PUSH1 0x0 PUSH2 0x1020 DUP3 PUSH2 0xD6B JUMP JUMPDEST PUSH2 0x102A DUP2 DUP6 PUSH2 0xBE2 JUMP JUMPDEST SWAP4 POP PUSH2 0x103A DUP2 DUP6 PUSH1 0x20 DUP7 ADD PUSH2 0xD81 JUMP JUMPDEST PUSH2 0x1043 DUP2 PUSH2 0x834 JUMP JUMPDEST DUP5 ADD SWAP2 POP POP SWAP3 SWAP2 POP POP JUMP JUMPDEST PUSH1 0x0 PUSH1 0x40 DUP3 ADD SWAP1 POP DUP2 DUP2 SUB PUSH1 0x0 DUP4 ADD MSTORE PUSH2 0x1068 DUP2 DUP6 PUSH2 0x1015 JUMP JUMPDEST SWAP1 POP PUSH2 0x1077 PUSH1 0x20 DUP4 ADD DUP5 PUSH2 0x9B9 JUMP JUMPDEST SWAP4 SWAP3 POP POP POP JUMP JUMPDEST PUSH1 0x0 PUSH1 0x40 DUP3 ADD SWAP1 POP PUSH2 0x1093 PUSH1 0x0 DUP4 ADD DUP6 PUSH2 0x9B9 JUMP JUMPDEST PUSH2 0x10A0 PUSH1 0x20 DUP4 ADD DUP5 PUSH2 0x9B9 JUMP JUMPDEST SWAP4 SWAP3 POP POP POP JUMP JUMPDEST PUSH1 0x0 PUSH2 0x10B2 DUP3 PUSH2 0x7C7 JUMP JUMPDEST SWAP2 POP PUSH2 0x10BD DUP4 PUSH2 0x7C7 JUMP JUMPDEST SWAP3 POP DUP3 DUP3 SUB SWAP1 POP DUP2 DUP2 GT ISZERO PUSH2 0x10D5 JUMPI PUSH2 0x10D4 PUSH2 0xCCB JUMP JUMPDEST JUMPDEST SWAP3 SWAP2 POP POP JUMP INVALID LOG2 PUSH5 0x6970667358 0x22 SLT KECCAK256 0xD1 0xCD 0xB9 0xFB 0xF8 EXTCODECOPY PUSH21 0xEE16B1600218125D8CEDCBB4FB97FB1DC7D30EE2A 0xEA PREVRANDAO PUSH24 0x5F64736F6C63430008130033000000000000000000000000 "},"methodIdentifiers":{"attendanceRecords(string)":"5a100a73","getMealAttendance(bytes32)":"f35cc91d","mealAttendanceByDate(bytes32)":"9e1c2fd3","mealTokens(uint256)":"e2ece4e4","purchaseToken(uint256)":"c2db2c42","recordAttendance(string,string,bytes32)":"ad044c5b","redeemToken(uint256)":"013054c2"}}}}}