{
  "_format": "hh-sol-artifact-1",
  "contractName": "VotingSystem",
  "sourceName": "contracts/VotingSystem.sol",
  "abi": [
    {
      "inputs": [],
      "stateMutability": "nonpayable",
      "type": "constructor"
    },
    {
      "anonymous": false,
      "inputs": [
        {
          "indexed": false,
          "internalType": "uint256",
          "name": "pollId",
          "type": "uint256"
        },
        {
          "indexed": false,
          "internalType": "string",
          "name": "rollNumber",
          "type": "string"
        }
      ],
      "name": "CandidateJoined",
      "type": "event"
    },
    {
      "anonymous": false,
      "inputs": [
        {
          "indexed": false,
          "internalType": "string",
          "name": "rollNumber",
          "type": "string"
        },
        {
          "indexed": false,
          "internalType": "uint256",
          "name": "pollId",
          "type": "uint256"
        }
      ],
      "name": "CandidateNotParticipated",
      "type": "event"
    },
    {
      "anonymous": false,
      "inputs": [
        {
          "indexed": false,
          "internalType": "string",
          "name": "rollNumber",
          "type": "string"
        },
        {
          "indexed": false,
          "internalType": "uint256",
          "name": "pollId",
          "type": "uint256"
        }
      ],
      "name": "CandidateRegistered",
      "type": "event"
    },
    {
      "anonymous": false,
      "inputs": [
        {
          "indexed": false,
          "internalType": "string",
          "name": "rollNumber",
          "type": "string"
        },
        {
          "indexed": false,
          "internalType": "uint256",
          "name": "pollId",
          "type": "uint256"
        }
      ],
      "name": "CommitteeMemberElected",
      "type": "event"
    },
    {
      "anonymous": false,
      "inputs": [
        {
          "indexed": false,
          "internalType": "string[]",
          "name": "newMembers",
          "type": "string[]"
        }
      ],
      "name": "CommitteeUpdated",
      "type": "event"
    },
    {
      "anonymous": false,
      "inputs": [
        {
          "indexed": false,
          "internalType": "uint256",
          "name": "pollId",
          "type": "uint256"
        }
      ],
      "name": "PollCompleted",
      "type": "event"
    },
    {
      "anonymous": false,
      "inputs": [
        {
          "indexed": false,
          "internalType": "uint256",
          "name": "pollId",
          "type": "uint256"
        },
        {
          "indexed": false,
          "internalType": "enum VotingSystem.PollType",
          "name": "pollType",
          "type": "uint8"
        }
      ],
      "name": "PollInitiated",
      "type": "event"
    },
    {
      "anonymous": false,
      "inputs": [
        {
          "indexed": false,
          "internalType": "uint256",
          "name": "pollId",
          "type": "uint256"
        }
      ],
      "name": "PollStarted",
      "type": "event"
    },
    {
      "anonymous": false,
      "inputs": [
        {
          "indexed": false,
          "internalType": "string",
          "name": "rollNumber",
          "type": "string"
        },
        {
          "indexed": false,
          "internalType": "uint256",
          "name": "pollId",
          "type": "uint256"
        }
      ],
      "name": "VoteMissed",
      "type": "event"
    },
    {
      "anonymous": false,
      "inputs": [
        {
          "indexed": false,
          "internalType": "uint256",
          "name": "pollId",
          "type": "uint256"
        },
        {
          "indexed": false,
          "internalType": "string",
          "name": "rollNumber",
          "type": "string"
        },
        {
          "indexed": false,
          "internalType": "string",
          "name": "option",
          "type": "string"
        }
      ],
      "name": "Voted",
      "type": "event"
    },
    {
      "anonymous": false,
      "inputs": [
        {
          "indexed": false,
          "internalType": "string",
          "name": "rollNumber",
          "type": "string"
        },
        {
          "indexed": false,
          "internalType": "uint256",
          "name": "pollId",
          "type": "uint256"
        },
        {
          "indexed": false,
          "internalType": "string",
          "name": "pollType",
          "type": "string"
        }
      ],
      "name": "VotedAndRewarded",
      "type": "event"
    },
    {
      "inputs": [],
      "name": "admin",
      "outputs": [
        {
          "internalType": "address",
          "name": "",
          "type": "address"
        }
      ],
      "stateMutability": "view",
      "type": "function"
    },
    {
      "inputs": [],
      "name": "candidateJoinDuration",
      "outputs": [
        {
          "internalType": "uint256",
          "name": "",
          "type": "uint256"
        }
      ],
      "stateMutability": "view",
      "type": "function"
    },
    {
      "inputs": [],
      "name": "candidateJoinExtension",
      "outputs": [
        {
          "internalType": "uint256",
          "name": "",
          "type": "uint256"
        }
      ],
      "stateMutability": "view",
      "type": "function"
    },
    {
      "inputs": [
        {
          "internalType": "uint256",
          "name": "pollId",
          "type": "uint256"
        }
      ],
      "name": "completePoll",
      "outputs": [],
      "stateMutability": "nonpayable",
      "type": "function"
    },
    {
      "inputs": [
        {
          "internalType": "string",
          "name": "title",
          "type": "string"
        },
        {
          "internalType": "string[]",
          "name": "options",
          "type": "string[]"
        },
        {
          "internalType": "uint256",
          "name": "duration",
          "type": "uint256"
        }
      ],
      "name": "createGeneralPoll",
      "outputs": [],
      "stateMutability": "nonpayable",
      "type": "function"
    },
    {
      "inputs": [
        {
          "internalType": "uint256",
          "name": "",
          "type": "uint256"
        }
      ],
      "name": "currentCommitteeMembers",
      "outputs": [
        {
          "internalType": "string",
          "name": "",
          "type": "string"
        }
      ],
      "stateMutability": "view",
      "type": "function"
    },
    {
      "inputs": [
        {
          "internalType": "uint256",
          "name": "pollId",
          "type": "uint256"
        }
      ],
      "name": "dropIfNoCandidates",
      "outputs": [],
      "stateMutability": "nonpayable",
      "type": "function"
    },
    {
      "inputs": [
        {
          "internalType": "uint256",
          "name": "pollId",
          "type": "uint256"
        }
      ],
      "name": "getCandidates",
      "outputs": [
        {
          "internalType": "string[]",
          "name": "",
          "type": "string[]"
        }
      ],
      "stateMutability": "view",
      "type": "function"
    },
    {
      "inputs": [
        {
          "internalType": "uint256",
          "name": "pollId",
          "type": "uint256"
        }
      ],
      "name": "getOptions",
      "outputs": [
        {
          "internalType": "string[]",
          "name": "",
          "type": "string[]"
        }
      ],
      "stateMutability": "view",
      "type": "function"
    },
    {
      "inputs": [
        {
          "internalType": "uint256",
          "name": "pollId",
          "type": "uint256"
        }
      ],
      "name": "getPollVoters",
      "outputs": [
        {
          "internalType": "string[]",
          "name": "",
          "type": "string[]"
        }
      ],
      "stateMutability": "view",
      "type": "function"
    },
    {
      "inputs": [
        {
          "internalType": "uint256",
          "name": "pollId",
          "type": "uint256"
        }
      ],
      "name": "getTopCandidates",
      "outputs": [
        {
          "internalType": "string[]",
          "name": "",
          "type": "string[]"
        }
      ],
      "stateMutability": "view",
      "type": "function"
    },
    {
      "inputs": [
        {
          "internalType": "uint256",
          "name": "pollId",
          "type": "uint256"
        },
        {
          "internalType": "string",
          "name": "rollNumber",
          "type": "string"
        }
      ],
      "name": "getVotedCandidate",
      "outputs": [
        {
          "internalType": "string",
          "name": "",
          "type": "string"
        }
      ],
      "stateMutability": "view",
      "type": "function"
    },
    {
      "inputs": [
        {
          "internalType": "uint256",
          "name": "pollId",
          "type": "uint256"
        }
      ],
      "name": "handleLowCandidateCount",
      "outputs": [],
      "stateMutability": "nonpayable",
      "type": "function"
    },
    {
      "inputs": [],
      "name": "initiateCommitteePoll",
      "outputs": [],
      "stateMutability": "nonpayable",
      "type": "function"
    },
    {
      "inputs": [
        {
          "internalType": "string",
          "name": "",
          "type": "string"
        }
      ],
      "name": "isCommitteeMember",
      "outputs": [
        {
          "internalType": "bool",
          "name": "",
          "type": "bool"
        }
      ],
      "stateMutability": "view",
      "type": "function"
    },
    {
      "inputs": [
        {
          "internalType": "address",
          "name": "",
          "type": "address"
        }
      ],
      "name": "isCommitteeMemberByAddress",
      "outputs": [
        {
          "internalType": "bool",
          "name": "",
          "type": "bool"
        }
      ],
      "stateMutability": "view",
      "type": "function"
    },
    {
      "inputs": [
        {
          "internalType": "uint256",
          "name": "pollId",
          "type": "uint256"
        },
        {
          "internalType": "string",
          "name": "rollNumber",
          "type": "string"
        }
      ],
      "name": "joinCandidate",
      "outputs": [],
      "stateMutability": "nonpayable",
      "type": "function"
    },
    {
      "inputs": [],
      "name": "pollCount",
      "outputs": [
        {
          "internalType": "uint256",
          "name": "",
          "type": "uint256"
        }
      ],
      "stateMutability": "view",
      "type": "function"
    },
    {
      "inputs": [
        {
          "internalType": "uint256",
          "name": "",
          "type": "uint256"
        }
      ],
      "name": "polls",
      "outputs": [
        {
          "internalType": "uint256",
          "name": "id",
          "type": "uint256"
        },
        {
          "internalType": "string",
          "name": "title",
          "type": "string"
        },
        {
          "internalType": "enum VotingSystem.PollType",
          "name": "pollType",
          "type": "uint8"
        },
        {
          "internalType": "bool",
          "name": "isInitiated",
          "type": "bool"
        },
        {
          "internalType": "bool",
          "name": "isStarted",
          "type": "bool"
        },
        {
          "internalType": "bool",
          "name": "isCompleted",
          "type": "bool"
        },
        {
          "internalType": "uint256",
          "name": "startTime",
          "type": "uint256"
        },
        {
          "internalType": "uint256",
          "name": "endTime",
          "type": "uint256"
        },
        {
          "internalType": "uint256",
          "name": "candidateJoinStart",
          "type": "uint256"
        },
        {
          "internalType": "uint256",
          "name": "candidateJoinEnd",
          "type": "uint256"
        }
      ],
      "stateMutability": "view",
      "type": "function"
    },
    {
      "inputs": [
        {
          "internalType": "uint256",
          "name": "pollId",
          "type": "uint256"
        }
      ],
      "name": "startVotingPhase",
      "outputs": [],
      "stateMutability": "nonpayable",
      "type": "function"
    },
    {
      "inputs": [
        {
          "internalType": "uint256",
          "name": "_candidateJoinDuration",
          "type": "uint256"
        },
        {
          "internalType": "uint256",
          "name": "_candidateJoinExtension",
          "type": "uint256"
        },
        {
          "internalType": "uint256",
          "name": "_votingDuration",
          "type": "uint256"
        }
      ],
      "name": "updateDurations",
      "outputs": [],
      "stateMutability": "nonpayable",
      "type": "function"
    },
    {
      "inputs": [
        {
          "internalType": "uint256",
          "name": "pollId",
          "type": "uint256"
        },
        {
          "internalType": "string",
          "name": "rollNumber",
          "type": "string"
        },
        {
          "internalType": "uint256",
          "name": "optionIndex",
          "type": "uint256"
        }
      ],
      "name": "vote",
      "outputs": [],
      "stateMutability": "nonpayable",
      "type": "function"
    },
    {
      "inputs": [],
      "name": "votingDuration",
      "outputs": [
        {
          "internalType": "uint256",
          "name": "",
          "type": "uint256"
        }
      ],
      "stateMutability": "view",
      "type": "function"
    }
  ],
  "bytecode": "0x608060405262015180600555620151806006556202a30060075534801561002557600080fd5b50336000806101000a81548173ffffffffffffffffffffffffffffffffffffffff021916908373ffffffffffffffffffffffffffffffffffffffff160217905550613855806100756000396000f3fe608060405234801561001057600080fd5b506004361061014d5760003560e01c80636e48516c116100c3578063ac2f00741161007c578063ac2f0074146103b0578063d5a8da60146103e9578063d85ba99814610405578063f0f4545714610435578063f851a44014610451578063fcb342c21461046f5761014d565b80636e48516c146102f05780638915b3fb1461030c5780638b26f4141461033c5780639207891d1461035a5780639897b5c1146103785780639fb7a972146103945761014d565b8063392b448d11610115578063392b448d1461021e5780633e39a7a5146102285780635ce8b0c4146102585780635edaa87814610288578063609c89ac146102a45780636a98020c146102c05761014d565b8063132002fc146101525780631d9cfc481461017057806320de70321461018e57806321c6e770146101be57806333e0e2d1146101ee575b600080fd5b61015a61048b565b60405161016791906122aa565b60405180910390f35b610178610491565b60405161018591906122aa565b60405180910390f35b6101a860048036038101906101a3919061244b565b610497565b6040516101b59190612526565b60405180910390f35b6101d860048036038101906101d39190612548565b6106fd565b6040516101e59190612526565b60405180910390f35b610208600480360381019061020391906125d3565b6107a9565b604051610215919061261b565b60405180910390f35b6102266107c9565b005b610242600480360381019061023d9190612548565b610982565b60405161024f9190612742565b60405180910390f35b610272600480360381019061026d9190612548565b610a71565b60405161027f9190612742565b60405180910390f35b6102a2600480360381019061029d9190612548565b610b60565b005b6102be60048036038101906102b9919061284a565b610d05565b005b6102da60048036038101906102d59190612548565b610ef9565b6040516102e79190612742565b60405180910390f35b61030a600480360381019061030591906128d5565b610fee565b005b61032660048036038101906103219190612548565b611096565b6040516103339190612742565b60405180910390f35b610344611185565b60405161035191906122aa565b60405180910390f35b61036261118b565b60405161036f91906122aa565b60405180910390f35b610392600480360381019061038d919061244b565b611191565b005b6103ae60048036038101906103a99190612548565b611325565b005b6103ca60048036038101906103c59190612548565b6115a5565b6040516103e09a9998979695949392919061299f565b60405180910390f35b61040360048036038101906103fe9190612548565b6116b5565b005b61041f600480360381019061041a9190612a42565b61181c565b60405161042c919061261b565b60405180910390f35b61044f600480360381019061044a9190612a8b565b611852565b005b610459611da1565b6040516104669190612b09565b60405180910390f35b61048960048036038101906104849190612548565b611dc5565b005b60075481565b60065481565b6060600060026000858152602001908152602001600020905080600801836040516104c29190612b60565b908152602001604051809103902060009054906101000a900460ff1661051d576040517f08c379a000000000000000000000000000000000000000000000000000000000815260040161051490612bc3565b60405180910390fd5b6001808111156105305761052f612928565b5b8160020160009054906101000a900460ff16600181111561055457610553612928565b5b0361062a578060070181600a018460405161056f9190612b60565b9081526020016040518091039020548154811061058f5761058e612be3565b5b9060005260206000200180546105a490612c41565b80601f01602080910402602001604051908101604052809291908181526020018280546105d090612c41565b801561061d5780601f106105f25761010080835404028352916020019161061d565b820191906000526020600020905b81548152906001019060200180831161060057829003601f168201915b50505050509150506106f7565b80600c0181600a01846040516106409190612b60565b908152602001604051809103902054815481106106605761065f612be3565b5b90600052602060002001805461067590612c41565b80601f01602080910402602001604051908101604052809291908181526020018280546106a190612c41565b80156106ee5780601f106106c3576101008083540402835291602001916106ee565b820191906000526020600020905b8154815290600101906020018083116106d157829003601f168201915b50505050509150505b92915050565b6004818154811061070d57600080fd5b90600052602060002001600091509050805461072890612c41565b80601f016020809104026020016040519081016040528092919081815260200182805461075490612c41565b80156107a15780601f10610776576101008083540402835291602001916107a1565b820191906000526020600020905b81548152906001019060200180831161078457829003601f168201915b505050505081565b60086020528060005260406000206000915054906101000a900460ff1681565b60008054906101000a900473ffffffffffffffffffffffffffffffffffffffff1673ffffffffffffffffffffffffffffffffffffffff163373ffffffffffffffffffffffffffffffffffffffff1614610857576040517f08c379a000000000000000000000000000000000000000000000000000000000815260040161084e90612cbe565b60405180910390fd5b6001600081548092919061086a90612d0d565b919050555060006002600060015481526020019081526020016000209050600154816000018190555060008160020160006101000a81548160ff021916908360018111156108bb576108ba612928565b5b021790555060018160020160016101000a81548160ff0219169083151502179055506040518060400160405280601781526020017f4d65737320436f6d6d697474656520456c656374696f6e0000000000000000008152508160010190816109239190612f01565b504281600501819055506005544261093b9190612fd3565b81600601819055507ff56720f46b4f501ba60ada2612bec06ce85a90711c7d8d2432d3641b367846526001546000604051610977929190613007565b60405180910390a150565b606060026000838152602001908152602001600020600c01805480602002602001604051908101604052809291908181526020016000905b82821015610a665783829060005260206000200180546109d990612c41565b80601f0160208091040260200160405190810160405280929190818152602001828054610a0590612c41565b8015610a525780601f10610a2757610100808354040283529160200191610a52565b820191906000526020600020905b815481529060010190602001808311610a3557829003601f168201915b5050505050815260200190600101906109ba565b505050509050919050565b606060026000838152602001908152602001600020600b01805480602002602001604051908101604052809291908181526020016000905b82821015610b55578382906000526020600020018054610ac890612c41565b80601f0160208091040260200160405190810160405280929190818152602001828054610af490612c41565b8015610b415780601f10610b1657610100808354040283529160200191610b41565b820191906000526020600020905b815481529060010190602001808311610b2457829003601f168201915b505050505081526020019060010190610aa9565b505050509050919050565b60008054906101000a900473ffffffffffffffffffffffffffffffffffffffff1673ffffffffffffffffffffffffffffffffffffffff163373ffffffffffffffffffffffffffffffffffffffff1614610bee576040517f08c379a0000000000000000000000000000000000000000000000000000000008152600401610be590612cbe565b60405180910390fd5b60006002600083815260200190815260200160002090508060020160039054906101000a900460ff16158015610c275750806004015442115b610c66576040517f08c379a0000000000000000000000000000000000000000000000000000000008152600401610c5d9061307c565b60405180910390fd5b60018160020160036101000a81548160ff0219169083151502179055507feebbfa7f1130139de7813f57f4f13fbd3c4f5fa60c6178d2cd77cb3a6422d91182604051610cb291906122aa565b60405180910390a160006001811115610cce57610ccd612928565b5b8160020160009054906101000a900460ff166001811115610cf257610cf1612928565b5b03610d0157610d0082611f90565b5b5050565b60008054906101000a900473ffffffffffffffffffffffffffffffffffffffff1673ffffffffffffffffffffffffffffffffffffffff163373ffffffffffffffffffffffffffffffffffffffff1614610d93576040517f08c379a0000000000000000000000000000000000000000000000000000000008152600401610d8a90612cbe565b60405180910390fd5b60016000815480929190610da690612d0d565b919050555060006002600060015481526020019081526020016000209050600154816000018190555083816001019081610de09190612f01565b5060018160020160006101000a81548160ff02191690836001811115610e0957610e08612928565b5b021790555082816007019080519060200190610e26929190612196565b504281600301819055508142610e3c9190612fd3565b816004018190555060018160020160016101000a81548160ff02191690831515021790555060018160020160026101000a81548160ff0219169083151502179055507ff56720f46b4f501ba60ada2612bec06ce85a90711c7d8d2432d3641b367846526001546001604051610eb2929190613007565b60405180910390a17f928c4911106538148065e238ed4194e64d48c07427a4d2c07829ae7bc480f427600154604051610eeb91906122aa565b60405180910390a150505050565b6060600060026000848152602001908152602001600020905080600c01805480602002602001604051908101604052809291908181526020016000905b82821015610fe2578382906000526020600020018054610f5590612c41565b80601f0160208091040260200160405190810160405280929190818152602001828054610f8190612c41565b8015610fce5780601f10610fa357610100808354040283529160200191610fce565b820191906000526020600020905b815481529060010190602001808311610fb157829003601f168201915b505050505081526020019060010190610f36565b50505050915050919050565b60008054906101000a900473ffffffffffffffffffffffffffffffffffffffff1673ffffffffffffffffffffffffffffffffffffffff163373ffffffffffffffffffffffffffffffffffffffff161461107c576040517f08c379a000000000000000000000000000000000000000000000000000000000815260040161107390612cbe565b60405180910390fd5b826005819055508160068190555080600781905550505050565b606060026000838152602001908152602001600020600701805480602002602001604051908101604052809291908181526020016000905b8282101561117a5783829060005260206000200180546110ed90612c41565b80601f016020809104026020016040519081016040528092919081815260200182805461111990612c41565b80156111665780601f1061113b57610100808354040283529160200191611166565b820191906000526020600020905b81548152906001019060200180831161114957829003601f168201915b5050505050815260200190600101906110ce565b505050509050919050565b60055481565b60015481565b6000600260008481526020019081526020016000209050600060018111156111bc576111bb612928565b5b8160020160009054906101000a900460ff1660018111156111e0576111df612928565b5b14611220576040517f08c379a0000000000000000000000000000000000000000000000000000000008152600401611217906130e8565b60405180910390fd5b80600501544210158015611238575080600601544211155b611277576040517f08c379a000000000000000000000000000000000000000000000000000000000815260040161126e90613154565b60405180910390fd5b80600c01829080600181540180825580915050600190039060005260206000200160009091909190915090816112ad9190612f01565b507facff172a0bd73d3cbe8b112674115ee24cce5b714906ff99c3ce018a89fa5a7283836040516112df929190613174565b60405180910390a17f86a1da2b43bd37b36bd408e8cd0977a58e5d4292315a151cdd900dae8e9c5cea82846040516113189291906131a4565b60405180910390a1505050565b60008054906101000a900473ffffffffffffffffffffffffffffffffffffffff1673ffffffffffffffffffffffffffffffffffffffff163373ffffffffffffffffffffffffffffffffffffffff16146113b3576040517f08c379a00000000000000000000000000000000000000000000000000000000081526004016113aa90612cbe565b60405180910390fd5b6000600260008381526020019081526020016000209050600060018111156113de576113dd612928565b5b8160020160009054906101000a900460ff16600181111561140257611401612928565b5b14611442576040517f08c379a000000000000000000000000000000000000000000000000000000000815260040161143990613220565b60405180910390fd5b8060020160039054906101000a900460ff1615611494576040517f08c379a000000000000000000000000000000000000000000000000000000000815260040161148b9061328c565b60405180910390fd5b806006015442116114da576040517f08c379a00000000000000000000000000000000000000000000000000000000081526004016114d1906132f8565b60405180910390fd5b600381600c0180549050108015611505575060055481600501546114fe9190612fd3565b8160060154145b1561152c576006548160060160008282546115209190612fd3565b925050819055506115a1565b8060060154421180156115465750600581600c0180549050105b156115a05760018160020160036101000a81548160ff0219169083151502179055507feebbfa7f1130139de7813f57f4f13fbd3c4f5fa60c6178d2cd77cb3a6422d9118260405161159791906122aa565b60405180910390a15b5b5050565b60026020528060005260406000206000915090508060000154908060010180546115ce90612c41565b80601f01602080910402602001604051908101604052809291908181526020018280546115fa90612c41565b80156116475780601f1061161c57610100808354040283529160200191611647565b820191906000526020600020905b81548152906001019060200180831161162a57829003601f168201915b5050505050908060020160009054906101000a900460ff16908060020160019054906101000a900460ff16908060020160029054906101000a900460ff16908060020160039054906101000a900460ff1690806003015490806004015490806005015490806006015490508a565b60008054906101000a900473ffffffffffffffffffffffffffffffffffffffff1673ffffffffffffffffffffffffffffffffffffffff163373ffffffffffffffffffffffffffffffffffffffff1614611743576040517f08c379a000000000000000000000000000000000000000000000000000000000815260040161173a90612cbe565b60405180910390fd5b6000600260008381526020019081526020016000209050600281600c018054905010156117a5576040517f08c379a000000000000000000000000000000000000000000000000000000000815260040161179c90613364565b60405180910390fd5b60018160020160026101000a81548160ff021916908315150217905550428160030181905550600754426117d99190612fd3565b81600401819055507f928c4911106538148065e238ed4194e64d48c07427a4d2c07829ae7bc480f4278260405161181091906122aa565b60405180910390a15050565b6003818051602081018201805184825260208301602085012081835280955050505050506000915054906101000a900460ff1681565b60006002600085815260200190815260200160002090508060020160029054906101000a900460ff166118ba576040517f08c379a00000000000000000000000000000000000000000000000000000000081526004016118b1906133d0565b60405180910390fd5b806003015442101580156118d2575080600401544211155b611911576040517f08c379a00000000000000000000000000000000000000000000000000000000081526004016119089061343c565b60405180910390fd5b80600801836040516119239190612b60565b908152602001604051809103902060009054906101000a900460ff161561197f576040517f08c379a0000000000000000000000000000000000000000000000000000000008152600401611976906134a8565b60405180910390fd5b606060018081111561199457611993612928565b5b8260020160009054906101000a900460ff1660018111156119b8576119b7612928565b5b03611ab65781600701805490508310611a06576040517f08c379a00000000000000000000000000000000000000000000000000000000081526004016119fd90613514565b60405180910390fd5b816007018381548110611a1c57611a1b612be3565b5b906000526020600020018054611a3190612c41565b80601f0160208091040260200160405190810160405280929190818152602001828054611a5d90612c41565b8015611aaa5780601f10611a7f57610100808354040283529160200191611aaa565b820191906000526020600020905b815481529060010190602001808311611a8d57829003601f168201915b50505050509050611bab565b81600c01805490508310611aff576040517f08c379a0000000000000000000000000000000000000000000000000000000008152600401611af690613580565b60405180910390fd5b81600c018381548110611b1557611b14612be3565b5b906000526020600020018054611b2a90612c41565b80601f0160208091040260200160405190810160405280929190818152602001828054611b5690612c41565b8015611ba35780601f10611b7857610100808354040283529160200191611ba3565b820191906000526020600020905b815481529060010190602001808311611b8657829003601f168201915b505050505090505b60018260080185604051611bbf9190612b60565b908152602001604051809103902060006101000a81548160ff0219169083151502179055508282600a0185604051611bf79190612b60565b9081526020016040518091039020819055508160090181604051611c1b9190612b60565b90815260200160405180910390206000815480929190611c3a90612d0d565b919050555081600b0184908060018154018082558091505060019003906000526020600020016000909190919091509081611c759190612f01565b507ff3cd7e5235d82e2f00240b3d9d6d3b0c11f78bbfc25c1f941837d40002f2d4b8858583604051611ca9939291906135a0565b60405180910390a17fda8dedb4068ebc1b5437fc21a322e200341dd5dc22d4435abcf80e5fd7e10f0e848660006001811115611ce857611ce7612928565b5b8560020160009054906101000a900460ff166001811115611d0c57611d0b612928565b5b14611d4c576040518060400160405280600781526020017f47656e6572616c00000000000000000000000000000000000000000000000000815250611d83565b6040518060400160405280600981526020017f436f6d6d697474656500000000000000000000000000000000000000000000008152505b604051611d92939291906135e5565b60405180910390a15050505050565b60008054906101000a900473ffffffffffffffffffffffffffffffffffffffff1681565b60008054906101000a900473ffffffffffffffffffffffffffffffffffffffff1673ffffffffffffffffffffffffffffffffffffffff163373ffffffffffffffffffffffffffffffffffffffff1614611e53576040517f08c379a0000000000000000000000000000000000000000000000000000000008152600401611e4a90612cbe565b60405180910390fd5b600060026000838152602001908152602001600020905060006001811115611e7e57611e7d612928565b5b8160020160009054906101000a900460ff166001811115611ea257611ea1612928565b5b14611ee2576040517f08c379a0000000000000000000000000000000000000000000000000000000008152600401611ed990613220565b60405180910390fd5b80600601544211611f28576040517f08c379a0000000000000000000000000000000000000000000000000000000008152600401611f1f906132f8565b60405180910390fd5b600081600c018054905003611f8c5760018160020160036101000a81548160ff0219169083151502179055507feebbfa7f1130139de7813f57f4f13fbd3c4f5fa60c6178d2cd77cb3a6422d91182604051611f8391906122aa565b60405180910390a15b5050565b60005b600480549050811015612007576000600360048381548110611fb857611fb7612be3565b5b90600052602060002001604051611fcf91906136ad565b908152602001604051809103902060006101000a81548160ff0219169083151502179055508080611fff90612d0d565b915050611f93565b506004600061201691906121ef565b6000600260008381526020019081526020016000209050600061203883610ef9565b905060005b81518110801561204d5750600581105b15612158576001600383838151811061206957612068612be3565b5b602002602001015160405161207e9190612b60565b908152602001604051809103902060006101000a81548160ff02191690831515021790555060048282815181106120b8576120b7612be3565b5b60200260200101519080600181540180825580915050600190039060005260206000200160009091909190915090816120f19190612f01565b507fb736f330c4e2ff32afe5b6736751ca99a5de6dd4b06f4b524b6e14d780de6dd782828151811061212657612125612be3565b5b60200260200101518560405161213d9291906131a4565b60405180910390a1808061215090612d0d565b91505061203d565b507f7f5271f5a9265683434272df724eeb23dac6d880c569113c6991dd09dcb36db1600460405161218991906137fd565b60405180910390a1505050565b8280548282559060005260206000209081019282156121de579160200282015b828111156121dd5782518290816121cd9190612f01565b50916020019190600101906121b6565b5b5090506121eb9190612210565b5090565b508054600082559060005260206000209081019061220d9190612210565b50565b5b8082111561223057600081816122279190612234565b50600101612211565b5090565b50805461224090612c41565b6000825580601f106122525750612271565b601f0160209004906000526020600020908101906122709190612274565b5b50565b5b8082111561228d576000816000905550600101612275565b5090565b6000819050919050565b6122a481612291565b82525050565b60006020820190506122bf600083018461229b565b92915050565b6000604051905090565b600080fd5b600080fd5b6122e281612291565b81146122ed57600080fd5b50565b6000813590506122ff816122d9565b92915050565b600080fd5b600080fd5b6000601f19601f8301169050919050565b7f4e487b7100000000000000000000000000000000000000000000000000000000600052604160045260246000fd5b6123588261230f565b810181811067ffffffffffffffff8211171561237757612376612320565b5b80604052505050565b600061238a6122c5565b9050612396828261234f565b919050565b600067ffffffffffffffff8211156123b6576123b5612320565b5b6123bf8261230f565b9050602081019050919050565b82818337600083830152505050565b60006123ee6123e98461239b565b612380565b90508281526020810184848401111561240a5761240961230a565b5b6124158482856123cc565b509392505050565b600082601f83011261243257612431612305565b5b81356124428482602086016123db565b91505092915050565b60008060408385031215612462576124616122cf565b5b6000612470858286016122f0565b925050602083013567ffffffffffffffff811115612491576124906122d4565b5b61249d8582860161241d565b9150509250929050565b600081519050919050565b600082825260208201905092915050565b60005b838110156124e15780820151818401526020810190506124c6565b60008484015250505050565b60006124f8826124a7565b61250281856124b2565b93506125128185602086016124c3565b61251b8161230f565b840191505092915050565b6000602082019050818103600083015261254081846124ed565b905092915050565b60006020828403121561255e5761255d6122cf565b5b600061256c848285016122f0565b91505092915050565b600073ffffffffffffffffffffffffffffffffffffffff82169050919050565b60006125a082612575565b9050919050565b6125b081612595565b81146125bb57600080fd5b50565b6000813590506125cd816125a7565b92915050565b6000602082840312156125e9576125e86122cf565b5b60006125f7848285016125be565b91505092915050565b60008115159050919050565b61261581612600565b82525050565b6000602082019050612630600083018461260c565b92915050565b600081519050919050565b600082825260208201905092915050565b6000819050602082019050919050565b600082825260208201905092915050565b600061267e826124a7565b6126888185612662565b93506126988185602086016124c3565b6126a18161230f565b840191505092915050565b60006126b88383612673565b905092915050565b6000602082019050919050565b60006126d882612636565b6126e28185612641565b9350836020820285016126f485612652565b8060005b85811015612730578484038952815161271185826126ac565b945061271c836126c0565b925060208a019950506001810190506126f8565b50829750879550505050505092915050565b6000602082019050818103600083015261275c81846126cd565b905092915050565b600067ffffffffffffffff82111561277f5761277e612320565b5b602082029050602081019050919050565b600080fd5b60006127a86127a384612764565b612380565b905080838252602082019050602084028301858111156127cb576127ca612790565b5b835b8181101561281257803567ffffffffffffffff8111156127f0576127ef612305565b5b8086016127fd898261241d565b855260208501945050506020810190506127cd565b5050509392505050565b600082601f83011261283157612830612305565b5b8135612841848260208601612795565b91505092915050565b600080600060608486031215612863576128626122cf565b5b600084013567ffffffffffffffff811115612881576128806122d4565b5b61288d8682870161241d565b935050602084013567ffffffffffffffff8111156128ae576128ad6122d4565b5b6128ba8682870161281c565b92505060406128cb868287016122f0565b9150509250925092565b6000806000606084860312156128ee576128ed6122cf565b5b60006128fc868287016122f0565b935050602061290d868287016122f0565b925050604061291e868287016122f0565b9150509250925092565b7f4e487b7100000000000000000000000000000000000000000000000000000000600052602160045260246000fd5b6002811061296857612967612928565b5b50565b600081905061297982612957565b919050565b60006129898261296b565b9050919050565b6129998161297e565b82525050565b6000610140820190506129b5600083018d61229b565b81810360208301526129c7818c6124ed565b90506129d6604083018b612990565b6129e3606083018a61260c565b6129f0608083018961260c565b6129fd60a083018861260c565b612a0a60c083018761229b565b612a1760e083018661229b565b612a2561010083018561229b565b612a3361012083018461229b565b9b9a5050505050505050505050565b600060208284031215612a5857612a576122cf565b5b600082013567ffffffffffffffff811115612a7657612a756122d4565b5b612a828482850161241d565b91505092915050565b600080600060608486031215612aa457612aa36122cf565b5b6000612ab2868287016122f0565b935050602084013567ffffffffffffffff811115612ad357612ad26122d4565b5b612adf8682870161241d565b9250506040612af0868287016122f0565b9150509250925092565b612b0381612595565b82525050565b6000602082019050612b1e6000830184612afa565b92915050565b600081905092915050565b6000612b3a826124a7565b612b448185612b24565b9350612b548185602086016124c3565b80840191505092915050565b6000612b6c8284612b2f565b915081905092915050565b7f53747564656e74206861736e277420766f746564000000000000000000000000600082015250565b6000612bad6014836124b2565b9150612bb882612b77565b602082019050919050565b60006020820190508181036000830152612bdc81612ba0565b9050919050565b7f4e487b7100000000000000000000000000000000000000000000000000000000600052603260045260246000fd5b7f4e487b7100000000000000000000000000000000000000000000000000000000600052602260045260246000fd5b60006002820490506001821680612c5957607f821691505b602082108103612c6c57612c6b612c12565b5b50919050565b7f4f6e6c792061646d696e00000000000000000000000000000000000000000000600082015250565b6000612ca8600a836124b2565b9150612cb382612c72565b602082019050919050565b60006020820190508181036000830152612cd781612c9b565b9050919050565b7f4e487b7100000000000000000000000000000000000000000000000000000000600052601160045260246000fd5b6000612d1882612291565b91507fffffffffffffffffffffffffffffffffffffffffffffffffffffffffffffffff8203612d4a57612d49612cde565b5b600182019050919050565b60008190508160005260206000209050919050565b60006020601f8301049050919050565b600082821b905092915050565b600060088302612db77fffffffffffffffffffffffffffffffffffffffffffffffffffffffffffffffff82612d7a565b612dc18683612d7a565b95508019841693508086168417925050509392505050565b6000819050919050565b6000612dfe612df9612df484612291565b612dd9565b612291565b9050919050565b6000819050919050565b612e1883612de3565b612e2c612e2482612e05565b848454612d87565b825550505050565b600090565b612e41612e34565b612e4c818484612e0f565b505050565b5b81811015612e7057612e65600082612e39565b600181019050612e52565b5050565b601f821115612eb557612e8681612d55565b612e8f84612d6a565b81016020851015612e9e578190505b612eb2612eaa85612d6a565b830182612e51565b50505b505050565b600082821c905092915050565b6000612ed860001984600802612eba565b1980831691505092915050565b6000612ef18383612ec7565b9150826002028217905092915050565b612f0a826124a7565b67ffffffffffffffff811115612f2357612f22612320565b5b612f2d8254612c41565b612f38828285612e74565b600060209050601f831160018114612f6b5760008415612f59578287015190505b612f638582612ee5565b865550612fcb565b601f198416612f7986612d55565b60005b82811015612fa157848901518255600182019150602085019450602081019050612f7c565b86831015612fbe5784890151612fba601f891682612ec7565b8355505b6001600288020188555050505b505050505050565b6000612fde82612291565b9150612fe983612291565b925082820190508082111561300157613000612cde565b5b92915050565b600060408201905061301c600083018561229b565b6130296020830184612990565b9392505050565b7f43616e6e6f7420636f6d706c6574652079657400000000000000000000000000600082015250565b60006130666013836124b2565b915061307182613030565b602082019050919050565b6000602082019050818103600083015261309581613059565b9050919050565b7f4f6e6c7920666f7220636f6d6d697474656520706f6c6c000000000000000000600082015250565b60006130d26017836124b2565b91506130dd8261309c565b602082019050919050565b60006020820190508181036000830152613101816130c5565b9050919050565b7f4e6f7420696e2063616e646964617465206a6f696e2077696e646f7700000000600082015250565b600061313e601c836124b2565b915061314982613108565b602082019050919050565b6000602082019050818103600083015261316d81613131565b9050919050565b6000604082019050613189600083018561229b565b818103602083015261319b81846124ed565b90509392505050565b600060408201905081810360008301526131be81856124ed565b90506131cd602083018461229b565b9392505050565b7f4e6f74206120636f6d6d697474656520706f6c6c000000000000000000000000600082015250565b600061320a6014836124b2565b9150613215826131d4565b602082019050919050565b60006020820190508181036000830152613239816131fd565b9050919050565b7f506f6c6c20616c726561647920636f6d706c6574656400000000000000000000600082015250565b60006132766016836124b2565b915061328182613240565b602082019050919050565b600060208201905081810360008301526132a581613269565b9050919050565b7f4a6f696e20706572696f64206e6f74206f766572000000000000000000000000600082015250565b60006132e26014836124b2565b91506132ed826132ac565b602082019050919050565b60006020820190508181036000830152613311816132d5565b9050919050565b7f4e6f7420656e6f7567682063616e646964617465730000000000000000000000600082015250565b600061334e6015836124b2565b915061335982613318565b602082019050919050565b6000602082019050818103600083015261337d81613341565b9050919050565b7f566f74696e67206e6f7420737461727465640000000000000000000000000000600082015250565b60006133ba6012836124b2565b91506133c582613384565b602082019050919050565b600060208201905081810360008301526133e9816133ad565b9050919050565b7f566f74696e6720636c6f73656400000000000000000000000000000000000000600082015250565b6000613426600d836124b2565b9150613431826133f0565b602082019050919050565b6000602082019050818103600083015261345581613419565b9050919050565b7f416c726561647920766f74656400000000000000000000000000000000000000600082015250565b6000613492600d836124b2565b915061349d8261345c565b602082019050919050565b600060208201905081810360008301526134c181613485565b9050919050565b7f496e76616c6964206f7074696f6e20696e646578000000000000000000000000600082015250565b60006134fe6014836124b2565b9150613509826134c8565b602082019050919050565b6000602082019050818103600083015261352d816134f1565b9050919050565b7f496e76616c69642063616e64696461746520696e646578000000000000000000600082015250565b600061356a6017836124b2565b915061357582613534565b602082019050919050565b600060208201905081810360008301526135998161355d565b9050919050565b60006060820190506135b5600083018661229b565b81810360208301526135c781856124ed565b905081810360408301526135db81846124ed565b9050949350505050565b600060608201905081810360008301526135ff81866124ed565b905061360e602083018561229b565b818103604083015261362081846124ed565b9050949350505050565b6000815461363781612c41565b6136418186612b24565b9450600182166000811461365c5760018114613671576136a4565b60ff19831686528115158202860193506136a4565b61367a85612d55565b60005b8381101561369c5781548189015260018201915060208101905061367d565b838801955050505b50505092915050565b60006136b9828461362a565b915081905092915050565b600081549050919050565b60008190508160005260206000209050919050565b600081546136f181612c41565b6136fb8186612662565b94506001821660008114613716576001811461372c5761375f565b60ff19831686528115156020028601935061375f565b61373585612d55565b60005b8381101561375757815481890152600182019150602081019050613738565b808801955050505b50505092915050565b600061377483836136e4565b905092915050565b6000600182019050919050565b6000613794826136c4565b61379e8185612641565b9350836020820285016137b0856136cf565b8060005b858110156137eb578484038952816137cc8582613768565b94506137d78361377c565b925060208a019950506001810190506137b4565b50829750879550505050505092915050565b600060208201905081810360008301526138178184613789565b90509291505056fea2646970667358221220d2b3beebd03efc561d51802b9c1afbcb0e1a7a06226d7fde001ffa66450a243464736f6c63430008130033",
  "linkReferences": {},
  "deployedLinkReferences": {}
}