{
  "_format": "hh-sol-artifact-1",
  "contractName": "MessAttendance",
  "sourceName": "contracts/MessAttendance.sol",
  "abi": [
    {
      "anonymous": false,
      "inputs": [
        {
          "indexed": true,
          "internalType": "string",
          "name": "rollNo",
          "type": "string"
        },
        {
          "indexed": false,
          "internalType": "string",
          "name": "session",
          "type": "string"
        },
        {
          "indexed": false,
          "internalType": "uint256",
          "name": "timestamp",
          "type": "uint256"
        }
      ],
      "name": "AttendanceRecorded",
      "type": "event"
    },
    {
      "anonymous": false,
      "inputs": [
        {
          "indexed": true,
          "internalType": "uint256",
          "name": "tokenId",
          "type": "uint256"
        },
        {
          "indexed": false,
          "internalType": "uint256",
          "name": "numPeople",
          "type": "uint256"
        },
        {
          "indexed": false,
          "internalType": "uint256",
          "name": "purchaseTimestamp",
          "type": "uint256"
        }
      ],
      "name": "TokenPurchased",
      "type": "event"
    },
    {
      "anonymous": false,
      "inputs": [
        {
          "indexed": true,
          "internalType": "uint256",
          "name": "tokenId",
          "type": "uint256"
        },
        {
          "indexed": false,
          "internalType": "uint256",
          "name": "redeemedCount",
          "type": "uint256"
        },
        {
          "indexed": false,
          "internalType": "bool",
          "name": "isFullyRedeemed",
          "type": "bool"
        }
      ],
      "name": "TokenRedeemed",
      "type": "event"
    },
    {
      "inputs": [
        {
          "internalType": "string",
          "name": "",
          "type": "string"
        }
      ],
      "name": "attendanceRecords",
      "outputs": [
        {
          "internalType": "uint256",
          "name": "morningTimestamp",
          "type": "uint256"
        },
        {
          "internalType": "uint256",
          "name": "afternoonTimestamp",
          "type": "uint256"
        },
        {
          "internalType": "uint256",
          "name": "eveningTimestamp",
          "type": "uint256"
        }
      ],
      "stateMutability": "view",
      "type": "function"
    },
    {
      "inputs": [
        {
          "internalType": "bytes32",
          "name": "dateHash",
          "type": "bytes32"
        }
      ],
      "name": "getMealAttendance",
      "outputs": [
        {
          "components": [
            {
              "internalType": "uint256",
              "name": "morningCount",
              "type": "uint256"
            },
            {
              "internalType": "uint256",
              "name": "afternoonCount",
              "type": "uint256"
            },
            {
              "internalType": "uint256",
              "name": "eveningCount",
              "type": "uint256"
            }
          ],
          "internalType": "struct MessAttendance.MealAttendance",
          "name": "",
          "type": "tuple"
        }
      ],
      "stateMutability": "view",
      "type": "function"
    },
    {
      "inputs": [
        {
          "internalType": "bytes32",
          "name": "",
          "type": "bytes32"
        }
      ],
      "name": "mealAttendanceByDate",
      "outputs": [
        {
          "internalType": "uint256",
          "name": "morningCount",
          "type": "uint256"
        },
        {
          "internalType": "uint256",
          "name": "afternoonCount",
          "type": "uint256"
        },
        {
          "internalType": "uint256",
          "name": "eveningCount",
          "type": "uint256"
        }
      ],
      "stateMutability": "view",
      "type": "function"
    },
    {
      "inputs": [
        {
          "internalType": "uint256",
          "name": "",
          "type": "uint256"
        }
      ],
      "name": "mealTokens",
      "outputs": [
        {
          "internalType": "uint256",
          "name": "tokenId",
          "type": "uint256"
        },
        {
          "internalType": "uint256",
          "name": "numPeople",
          "type": "uint256"
        },
        {
          "internalType": "uint256",
          "name": "redeemedCount",
          "type": "uint256"
        },
        {
          "internalType": "bool",
          "name": "isFullyRedeemed",
          "type": "bool"
        },
        {
          "internalType": "uint256",
          "name": "purchaseTimestamp",
          "type": "uint256"
        }
      ],
      "stateMutability": "view",
      "type": "function"
    },
    {
      "inputs": [
        {
          "internalType": "uint256",
          "name": "numPeople",
          "type": "uint256"
        }
      ],
      "name": "purchaseToken",
      "outputs": [
        {
          "internalType": "uint256",
          "name": "",
          "type": "uint256"
        }
      ],
      "stateMutability": "nonpayable",
      "type": "function"
    },
    {
      "inputs": [
        {
          "internalType": "string",
          "name": "rollNo",
          "type": "string"
        },
        {
          "internalType": "string",
          "name": "session",
          "type": "string"
        },
        {
          "internalType": "bytes32",
          "name": "dateHash",
          "type": "bytes32"
        }
      ],
      "name": "recordAttendance",
      "outputs": [],
      "stateMutability": "nonpayable",
      "type": "function"
    },
    {
      "inputs": [
        {
          "internalType": "uint256",
          "name": "tokenId",
          "type": "uint256"
        }
      ],
      "name": "redeemToken",
      "outputs": [],
      "stateMutability": "nonpayable",
      "type": "function"
    }
  ],
  "bytecode": "0x6080604052600160035534801561001557600080fd5b50611111806100256000396000f3fe608060405234801561001057600080fd5b506004361061007d5760003560e01c8063ad044c5b1161005b578063ad044c5b14610102578063c2db2c421461011e578063e2ece4e41461014e578063f35cc91d146101825761007d565b8063013054c2146100825780635a100a731461009e5780639e1c2fd3146100d0575b600080fd5b61009c600480360381019061009791906107fd565b6101b2565b005b6100b860048036038101906100b39190610970565b6102ff565b6040516100c7939291906109c8565b60405180910390f35b6100ea60048036038101906100e59190610a35565b61033f565b6040516100f9939291906109c8565b60405180910390f35b61011c60048036038101906101179190610a62565b610369565b005b610138600480360381019061013391906107fd565b61060b565b6040516101459190610aed565b60405180910390f35b610168600480360381019061016391906107fd565b610704565b604051610179959493929190610b23565b60405180910390f35b61019c60048036038101906101979190610a35565b610747565b6040516101a99190610bc7565b60405180910390f35b60006001600083815260200190815260200160002090508060030160009054906101000a900460ff161561021b576040517f08c379a000000000000000000000000000000000000000000000000000000000815260040161021290610c3f565b60405180910390fd5b8060010154816002015410610265576040517f08c379a000000000000000000000000000000000000000000000000000000000815260040161025c90610cab565b60405180910390fd5b80600201600081548092919061027a90610cfa565b919050555080600101548160020154036102ac5760018160030160006101000a81548160ff0219169083151502179055505b817f37af21c94510c917e93e302fa77aeacab5f6c64a516c7eba0a9cf3dd98afdf6f82600201548360030160009054906101000a900460ff166040516102f3929190610d42565b60405180910390a25050565b6000818051602081018201805184825260208301602085012081835280955050505050506000915090508060000154908060010154908060020154905083565b60026020528060005260406000206000915090508060000154908060010154908060020154905083565b6000808460405161037a9190610ddc565b9081526020016040518091039020905060006002600084815260200190815260200160002090507feca2298e0063c1b7e5366bc53b37956b8843260818e28d498c19326ea37c06ce84805190602001200361043e576000826000015414610416576040517f08c379a000000000000000000000000000000000000000000000000000000000815260040161040d90610e65565b60405180910390fd5b42826000018190555080600001600081548092919061043490610cfa565b91905055506105b5565b7fff584f894fddc7cd678b4387b989732b4fa35afd47e71f0ba4bce44f619a8d088480519060200120036104db5760008260010154146104b3576040517f08c379a00000000000000000000000000000000000000000000000000000000081526004016104aa90610ef7565b60405180910390fd5b4282600101819055508060010160008154809291906104d190610cfa565b91905055506105b4565b7fd79846417a5aa7ea7cd037f1a935ee97a5da63892600c2ccbe2fc68b60e586cf848051906020012003610578576000826002015414610550576040517f08c379a000000000000000000000000000000000000000000000000000000000815260040161054790610f89565b60405180910390fd5b42826002018190555080600201600081548092919061056e90610cfa565b91905055506105b3565b6040517f08c379a00000000000000000000000000000000000000000000000000000000081526004016105aa90610ff5565b60405180910390fd5b5b5b846040516105c39190610ddc565b60405180910390207feda299a99f24ebc549c00c7314b9b6a4ce955df6959e0558d84d3a33f6cd095c85426040516105fc92919061104e565b60405180910390a25050505050565b60006040518060a001604052806003548152602001838152602001600081526020016000151581526020014281525060016000600354815260200190815260200160002060008201518160000155602082015181600101556040820151816002015560608201518160030160006101000a81548160ff021916908315150217905550608082015181600401559050506003547fa3bfee04adc386a2dc18d7105f1a0b2566f74c4e1db75852784b5ab459941a3183426040516106ce92919061107e565b60405180910390a2600360008154809291906106e990610cfa565b919050555060016003546106fd91906110a7565b9050919050565b60016020528060005260406000206000915090508060000154908060010154908060020154908060030160009054906101000a900460ff16908060040154905085565b61074f610792565b6002600083815260200190815260200160002060405180606001604052908160008201548152602001600182015481526020016002820154815250509050919050565b60405180606001604052806000815260200160008152602001600081525090565b6000604051905090565b600080fd5b600080fd5b6000819050919050565b6107da816107c7565b81146107e557600080fd5b50565b6000813590506107f7816107d1565b92915050565b600060208284031215610813576108126107bd565b5b6000610821848285016107e8565b91505092915050565b600080fd5b600080fd5b6000601f19601f8301169050919050565b7f4e487b7100000000000000000000000000000000000000000000000000000000600052604160045260246000fd5b61087d82610834565b810181811067ffffffffffffffff8211171561089c5761089b610845565b5b80604052505050565b60006108af6107b3565b90506108bb8282610874565b919050565b600067ffffffffffffffff8211156108db576108da610845565b5b6108e482610834565b9050602081019050919050565b82818337600083830152505050565b600061091361090e846108c0565b6108a5565b90508281526020810184848401111561092f5761092e61082f565b5b61093a8482856108f1565b509392505050565b600082601f8301126109575761095661082a565b5b8135610967848260208601610900565b91505092915050565b600060208284031215610986576109856107bd565b5b600082013567ffffffffffffffff8111156109a4576109a36107c2565b5b6109b084828501610942565b91505092915050565b6109c2816107c7565b82525050565b60006060820190506109dd60008301866109b9565b6109ea60208301856109b9565b6109f760408301846109b9565b949350505050565b6000819050919050565b610a12816109ff565b8114610a1d57600080fd5b50565b600081359050610a2f81610a09565b92915050565b600060208284031215610a4b57610a4a6107bd565b5b6000610a5984828501610a20565b91505092915050565b600080600060608486031215610a7b57610a7a6107bd565b5b600084013567ffffffffffffffff811115610a9957610a986107c2565b5b610aa586828701610942565b935050602084013567ffffffffffffffff811115610ac657610ac56107c2565b5b610ad286828701610942565b9250506040610ae386828701610a20565b9150509250925092565b6000602082019050610b0260008301846109b9565b92915050565b60008115159050919050565b610b1d81610b08565b82525050565b600060a082019050610b3860008301886109b9565b610b4560208301876109b9565b610b5260408301866109b9565b610b5f6060830185610b14565b610b6c60808301846109b9565b9695505050505050565b610b7f816107c7565b82525050565b606082016000820151610b9b6000850182610b76565b506020820151610bae6020850182610b76565b506040820151610bc16040850182610b76565b50505050565b6000606082019050610bdc6000830184610b85565b92915050565b600082825260208201905092915050565b7f546f6b656e2069732066756c6c792072656465656d6564000000000000000000600082015250565b6000610c29601783610be2565b9150610c3482610bf3565b602082019050919050565b60006020820190508181036000830152610c5881610c1c565b9050919050565b7f526564656d7074696f6e206c696d697420726561636865640000000000000000600082015250565b6000610c95601883610be2565b9150610ca082610c5f565b602082019050919050565b60006020820190508181036000830152610cc481610c88565b9050919050565b7f4e487b7100000000000000000000000000000000000000000000000000000000600052601160045260246000fd5b6000610d05826107c7565b91507fffffffffffffffffffffffffffffffffffffffffffffffffffffffffffffffff8203610d3757610d36610ccb565b5b600182019050919050565b6000604082019050610d5760008301856109b9565b610d646020830184610b14565b9392505050565b600081519050919050565b600081905092915050565b60005b83811015610d9f578082015181840152602081019050610d84565b60008484015250505050565b6000610db682610d6b565b610dc08185610d76565b9350610dd0818560208601610d81565b80840191505092915050565b6000610de88284610dab565b915081905092915050565b7f4d6f726e696e6720617474656e64616e636520616c7265616479207265636f7260008201527f6465640000000000000000000000000000000000000000000000000000000000602082015250565b6000610e4f602383610be2565b9150610e5a82610df3565b604082019050919050565b60006020820190508181036000830152610e7e81610e42565b9050919050565b7f41667465726e6f6f6e20617474656e64616e636520616c72656164792072656360008201527f6f72646564000000000000000000000000000000000000000000000000000000602082015250565b6000610ee1602583610be2565b9150610eec82610e85565b604082019050919050565b60006020820190508181036000830152610f1081610ed4565b9050919050565b7f4576656e696e6720617474656e64616e636520616c7265616479207265636f7260008201527f6465640000000000000000000000000000000000000000000000000000000000602082015250565b6000610f73602383610be2565b9150610f7e82610f17565b604082019050919050565b60006020820190508181036000830152610fa281610f66565b9050919050565b7f496e76616c69642073657373696f6e0000000000000000000000000000000000600082015250565b6000610fdf600f83610be2565b9150610fea82610fa9565b602082019050919050565b6000602082019050818103600083015261100e81610fd2565b9050919050565b600061102082610d6b565b61102a8185610be2565b935061103a818560208601610d81565b61104381610834565b840191505092915050565b600060408201905081810360008301526110688185611015565b905061107760208301846109b9565b9392505050565b600060408201905061109360008301856109b9565b6110a060208301846109b9565b9392505050565b60006110b2826107c7565b91506110bd836107c7565b92508282039050818111156110d5576110d4610ccb565b5b9291505056fea2646970667358221220d1cdb9fbf83c740ee16b1600218125d8cedcbb4fb97fb1dc7d30ee2aea44775f64736f6c63430008130033",
  "linkReferences": {},
  "deployedLinkReferences": {}
}