{
  "_format": "hh-sol-artifact-1",
  "contractName": "ComplaintSystem",
  "sourceName": "contracts/ComplaintSystem.sol",
  "abi": [
    {
      "inputs": [
        {
          "internalType": "address",
          "name": "_fineRecipient",
          "type": "address"
        }
      ],
      "stateMutability": "nonpayable",
      "type": "constructor"
    },
    {
      "anonymous": false,
      "inputs": [
        {
          "indexed": false,
          "internalType": "uint256",
          "name": "id",
          "type": "uint256"
        },
        {
          "indexed": false,
          "internalType": "string",
          "name": "category",
          "type": "string"
        },
        {
          "indexed": false,
          "internalType": "string",
          "name": "description",
          "type": "string"
        },
        {
          "indexed": false,
          "internalType": "uint256",
          "name": "timestamp",
          "type": "uint256"
        },
        {
          "indexed": false,
          "internalType": "string",
          "name": "status",
          "type": "string"
        }
      ],
      "name": "ComplaintAdded",
      "type": "event"
    },
    {
      "anonymous": false,
      "inputs": [
        {
          "indexed": false,
          "internalType": "uint256",
          "name": "id",
          "type": "uint256"
        }
      ],
      "name": "ComplaintRemoved",
      "type": "event"
    },
    {
      "anonymous": false,
      "inputs": [
        {
          "indexed": false,
          "internalType": "uint256",
          "name": "id",
          "type": "uint256"
        }
      ],
      "name": "ComplaintResolved",
      "type": "event"
    },
    {
      "anonymous": false,
      "inputs": [
        {
          "indexed": false,
          "internalType": "uint256",
          "name": "id",
          "type": "uint256"
        },
        {
          "indexed": false,
          "internalType": "uint256",
          "name": "amount",
          "type": "uint256"
        }
      ],
      "name": "FineDeducted",
      "type": "event"
    },
    {
      "anonymous": false,
      "inputs": [
        {
          "indexed": false,
          "internalType": "string",
          "name": "rollNumber",
          "type": "string"
        },
        {
          "indexed": false,
          "internalType": "string",
          "name": "token",
          "type": "string"
        }
      ],
      "name": "RewardGiven",
      "type": "event"
    },
    {
      "anonymous": false,
      "inputs": [
        {
          "indexed": false,
          "internalType": "uint256",
          "name": "complaintId",
          "type": "uint256"
        },
        {
          "indexed": false,
          "internalType": "string",
          "name": "rollNumber",
          "type": "string"
        },
        {
          "indexed": false,
          "internalType": "bool",
          "name": "agree",
          "type": "bool"
        }
      ],
      "name": "VoteCast",
      "type": "event"
    },
    {
      "stateMutability": "payable",
      "type": "fallback"
    },
    {
      "inputs": [
        {
          "internalType": "string",
          "name": "_category",
          "type": "string"
        },
        {
          "internalType": "string",
          "name": "_description",
          "type": "string"
        }
      ],
      "name": "addComplaint",
      "outputs": [],
      "stateMutability": "nonpayable",
      "type": "function"
    },
    {
      "inputs": [],
      "name": "admin",
      "outputs": [
        {
          "internalType": "address",
          "name": "",
          "type": "address"
        }
      ],
      "stateMutability": "view",
      "type": "function"
    },
    {
      "inputs": [],
      "name": "checkAndDeductFines",
      "outputs": [],
      "stateMutability": "nonpayable",
      "type": "function"
    },
    {
      "inputs": [
        {
          "internalType": "uint256",
          "name": "",
          "type": "uint256"
        }
      ],
      "name": "complaints",
      "outputs": [
        {
          "internalType": "uint256",
          "name": "id",
          "type": "uint256"
        },
        {
          "internalType": "string",
          "name": "category",
          "type": "string"
        },
        {
          "internalType": "string",
          "name": "description",
          "type": "string"
        },
        {
          "internalType": "uint256",
          "name": "timestamp",
          "type": "uint256"
        },
        {
          "internalType": "string",
          "name": "status",
          "type": "string"
        },
        {
          "internalType": "uint256",
          "name": "voteDeadline",
          "type": "uint256"
        },
        {
          "internalType": "uint256",
          "name": "agreeVotes",
          "type": "uint256"
        },
        {
          "internalType": "uint256",
          "name": "disagreeVotes",
          "type": "uint256"
        },
        {
          "internalType": "bool",
          "name": "votingCompleted",
          "type": "bool"
        },
        {
          "internalType": "bool",
          "name": "fineDeducted",
          "type": "bool"
        },
        {
          "internalType": "uint256",
          "name": "count",
          "type": "uint256"
        }
      ],
      "stateMutability": "view",
      "type": "function"
    },
    {
      "inputs": [],
      "name": "defaultResolutionTime",
      "outputs": [
        {
          "internalType": "uint256",
          "name": "",
          "type": "uint256"
        }
      ],
      "stateMutability": "view",
      "type": "function"
    },
    {
      "inputs": [],
      "name": "defaultVotingDuration",
      "outputs": [
        {
          "internalType": "uint256",
          "name": "",
          "type": "uint256"
        }
      ],
      "stateMutability": "view",
      "type": "function"
    },
    {
      "inputs": [
        {
          "internalType": "uint256",
          "name": "_id",
          "type": "uint256"
        }
      ],
      "name": "finalizeVoting",
      "outputs": [],
      "stateMutability": "nonpayable",
      "type": "function"
    },
    {
      "inputs": [],
      "name": "fineAmount",
      "outputs": [
        {
          "internalType": "uint256",
          "name": "",
          "type": "uint256"
        }
      ],
      "stateMutability": "view",
      "type": "function"
    },
    {
      "inputs": [],
      "name": "fineRecipient",
      "outputs": [
        {
          "internalType": "address",
          "name": "",
          "type": "address"
        }
      ],
      "stateMutability": "view",
      "type": "function"
    },
    {
      "inputs": [],
      "name": "getAllComplaints",
      "outputs": [
        {
          "components": [
            {
              "internalType": "uint256",
              "name": "id",
              "type": "uint256"
            },
            {
              "internalType": "string",
              "name": "category",
              "type": "string"
            },
            {
              "internalType": "string",
              "name": "description",
              "type": "string"
            },
            {
              "internalType": "uint256",
              "name": "timestamp",
              "type": "uint256"
            },
            {
              "internalType": "string",
              "name": "status",
              "type": "string"
            },
            {
              "internalType": "uint256",
              "name": "voteDeadline",
              "type": "uint256"
            },
            {
              "internalType": "uint256",
              "name": "agreeVotes",
              "type": "uint256"
            },
            {
              "internalType": "uint256",
              "name": "disagreeVotes",
              "type": "uint256"
            },
            {
              "internalType": "bool",
              "name": "votingCompleted",
              "type": "bool"
            },
            {
              "internalType": "uint256",
              "name": "count",
              "type": "uint256"
            }
          ],
          "internalType": "struct ComplaintSystem.ComplaintView[]",
          "name": "",
          "type": "tuple[]"
        }
      ],
      "stateMutability": "view",
      "type": "function"
    },
    {
      "inputs": [],
      "name": "getComplaintCount",
      "outputs": [
        {
          "internalType": "uint256",
          "name": "",
          "type": "uint256"
        }
      ],
      "stateMutability": "view",
      "type": "function"
    },
    {
      "inputs": [
        {
          "internalType": "string",
          "name": "_category",
          "type": "string"
        }
      ],
      "name": "getComplaintsByCategory",
      "outputs": [
        {
          "components": [
            {
              "internalType": "uint256",
              "name": "id",
              "type": "uint256"
            },
            {
              "internalType": "string",
              "name": "category",
              "type": "string"
            },
            {
              "internalType": "string",
              "name": "description",
              "type": "string"
            },
            {
              "internalType": "uint256",
              "name": "timestamp",
              "type": "uint256"
            },
            {
              "internalType": "string",
              "name": "status",
              "type": "string"
            },
            {
              "internalType": "uint256",
              "name": "voteDeadline",
              "type": "uint256"
            },
            {
              "internalType": "uint256",
              "name": "agreeVotes",
              "type": "uint256"
            },
            {
              "internalType": "uint256",
              "name": "disagreeVotes",
              "type": "uint256"
            },
            {
              "internalType": "bool",
              "name": "votingCompleted",
              "type": "bool"
            },
            {
              "internalType": "uint256",
              "name": "count",
              "type": "uint256"
            }
          ],
          "internalType": "struct ComplaintSystem.ComplaintView[]",
          "name": "",
          "type": "tuple[]"
        }
      ],
      "stateMutability": "view",
      "type": "function"
    },
    {
      "inputs": [
        {
          "internalType": "string",
          "name": "_status",
          "type": "string"
        }
      ],
      "name": "getComplaintsByStatus",
      "outputs": [
        {
          "components": [
            {
              "internalType": "uint256",
              "name": "id",
              "type": "uint256"
            },
            {
              "internalType": "string",
              "name": "category",
              "type": "string"
            },
            {
              "internalType": "string",
              "name": "description",
              "type": "string"
            },
            {
              "internalType": "uint256",
              "name": "timestamp",
              "type": "uint256"
            },
            {
              "internalType": "string",
              "name": "status",
              "type": "string"
            },
            {
              "internalType": "uint256",
              "name": "voteDeadline",
              "type": "uint256"
            },
            {
              "internalType": "uint256",
              "name": "agreeVotes",
              "type": "uint256"
            },
            {
              "internalType": "uint256",
              "name": "disagreeVotes",
              "type": "uint256"
            },
            {
              "internalType": "bool",
              "name": "votingCompleted",
              "type": "bool"
            },
            {
              "internalType": "uint256",
              "name": "count",
              "type": "uint256"
            }
          ],
          "internalType": "struct ComplaintSystem.ComplaintView[]",
          "name": "",
          "type": "tuple[]"
        }
      ],
      "stateMutability": "view",
      "type": "function"
    },
    {
      "inputs": [
        {
          "internalType": "string",
          "name": "_status",
          "type": "string"
        },
        {
          "internalType": "string",
          "name": "_category",
          "type": "string"
        }
      ],
      "name": "getComplaintsByStatusAndCategory",
      "outputs": [
        {
          "components": [
            {
              "internalType": "uint256",
              "name": "id",
              "type": "uint256"
            },
            {
              "internalType": "string",
              "name": "category",
              "type": "string"
            },
            {
              "internalType": "string",
              "name": "description",
              "type": "string"
            },
            {
              "internalType": "uint256",
              "name": "timestamp",
              "type": "uint256"
            },
            {
              "internalType": "string",
              "name": "status",
              "type": "string"
            },
            {
              "internalType": "uint256",
              "name": "voteDeadline",
              "type": "uint256"
            },
            {
              "internalType": "uint256",
              "name": "agreeVotes",
              "type": "uint256"
            },
            {
              "internalType": "uint256",
              "name": "disagreeVotes",
              "type": "uint256"
            },
            {
              "internalType": "bool",
              "name": "votingCompleted",
              "type": "bool"
            },
            {
              "internalType": "uint256",
              "name": "count",
              "type": "uint256"
            }
          ],
          "internalType": "struct ComplaintSystem.ComplaintView[]",
          "name": "",
          "type": "tuple[]"
        }
      ],
      "stateMutability": "view",
      "type": "function"
    },
    {
      "inputs": [
        {
          "internalType": "uint256",
          "name": "_id",
          "type": "uint256"
        },
        {
          "internalType": "string",
          "name": "_rollNumber",
          "type": "string"
        }
      ],
      "name": "hasStudentVoted",
      "outputs": [
        {
          "internalType": "bool",
          "name": "",
          "type": "bool"
        }
      ],
      "stateMutability": "view",
      "type": "function"
    },
    {
      "inputs": [
        {
          "internalType": "uint256",
          "name": "_id",
          "type": "uint256"
        }
      ],
      "name": "incrementComplaintCount",
      "outputs": [],
      "stateMutability": "nonpayable",
      "type": "function"
    },
    {
      "inputs": [
        {
          "internalType": "uint256",
          "name": "_id",
          "type": "uint256"
        }
      ],
      "name": "resolveComplaint",
      "outputs": [],
      "stateMutability": "nonpayable",
      "type": "function"
    },
    {
      "inputs": [
        {
          "internalType": "uint256",
          "name": "_days",
          "type": "uint256"
        }
      ],
      "name": "setResolutionTime",
      "outputs": [],
      "stateMutability": "nonpayable",
      "type": "function"
    },
    {
      "inputs": [
        {
          "internalType": "uint256",
          "name": "_durationInDays",
          "type": "uint256"
        }
      ],
      "name": "setVotingDuration",
      "outputs": [],
      "stateMutability": "nonpayable",
      "type": "function"
    },
    {
      "inputs": [
        {
          "internalType": "uint256",
          "name": "_id",
          "type": "uint256"
        }
      ],
      "name": "startVoting",
      "outputs": [],
      "stateMutability": "nonpayable",
      "type": "function"
    },
    {
      "inputs": [
        {
          "internalType": "uint256",
          "name": "_id",
          "type": "uint256"
        },
        {
          "internalType": "string",
          "name": "_rollNumber",
          "type": "string"
        },
        {
          "internalType": "bool",
          "name": "_agree",
          "type": "bool"
        }
      ],
      "name": "voteOnComplaint",
      "outputs": [],
      "stateMutability": "nonpayable",
      "type": "function"
    },
    {
      "stateMutability": "payable",
      "type": "receive"
    }
  ],
  "bytecode": "0x608060405266038d7ea4c680006002556202a3006003556213c6806004553480156200002a57600080fd5b5060405162003b7738038062003b77833981810160405281019062000050919062000142565b336000806101000a81548173ffffffffffffffffffffffffffffffffffffffff021916908373ffffffffffffffffffffffffffffffffffffffff16021790555080600160006101000a81548173ffffffffffffffffffffffffffffffffffffffff021916908373ffffffffffffffffffffffffffffffffffffffff1602179055505062000174565b600080fd5b600073ffffffffffffffffffffffffffffffffffffffff82169050919050565b60006200010a82620000dd565b9050919050565b6200011c81620000fd565b81146200012857600080fd5b50565b6000815190506200013c8162000111565b92915050565b6000602082840312156200015b576200015a620000d8565b5b60006200016b848285016200012b565b91505092915050565b6139f380620001846000396000f3fe60806040526004361061012c5760003560e01c80637e69e912116100ab578063d3b39b4a1161006f578063d3b39b4a14610412578063dcc66dda1461043d578063e07a9fc714610468578063e76db6be14610491578063f760e144146104a8578063f851a440146104d157610133565b80637e69e912146102fb57806385ea3e171461034257806387bc03591461037f5780638896cb81146103bc578063a09312fd146103e757610133565b8063314d3a02116100f2578063314d3a021461021a57806332dcf03e146102575780633d2f5bda1461028057806349444831146102a95780635bcfadb5146102d257610133565b80624d2a2314610135578062878363146101725780630dac95391461019b5780631d215682146101c6578063237f9a8d146101f157610133565b3661013357005b005b34801561014157600080fd5b5061015c600480360381019061015791906127da565b6104fc565b6040516101699190612851565b60405180910390f35b34801561017e57600080fd5b506101996004803603810190610194919061286c565b61059c565b005b3480156101a757600080fd5b506101b061073f565b6040516101bd9190612b2b565b60405180910390f35b3480156101d257600080fd5b506101db610a23565b6040516101e89190612b8e565b60405180910390f35b3480156101fd57600080fd5b5061021860048036038101906102139190612ba9565b610a49565b005b34801561022657600080fd5b50610241600480360381019061023c919061286c565b610b5c565b60405161024e9190612b2b565b60405180910390f35b34801561026357600080fd5b5061027e60048036038101906102799190612c02565b610faa565b005b34801561028c57600080fd5b506102a760048036038101906102a29190612ba9565b6111ce565b005b3480156102b557600080fd5b506102d060048036038101906102cb9190612ba9565b61137c565b005b3480156102de57600080fd5b506102f960048036038101906102f49190612ba9565b6115bf565b005b34801561030757600080fd5b50610322600480360381019061031d9190612ba9565b6116a9565b6040516103399b9a99989796959493929190612cca565b60405180910390f35b34801561034e57600080fd5b5061036960048036038101906103649190612d8a565b6118c5565b6040516103769190612b2b565b60405180910390f35b34801561038b57600080fd5b506103a660048036038101906103a19190612d8a565b611c7a565b6040516103b39190612b2b565b60405180910390f35b3480156103c857600080fd5b506103d161202f565b6040516103de9190612dd3565b60405180910390f35b3480156103f357600080fd5b506103fc61203c565b6040516104099190612dd3565b60405180910390f35b34801561041e57600080fd5b50610427612042565b6040516104349190612dd3565b60405180910390f35b34801561044957600080fd5b50610452612048565b60405161045f9190612dd3565b60405180910390f35b34801561047457600080fd5b5061048f600480360381019061048a9190612ba9565b61204e565b005b34801561049d57600080fd5b506104a66120f4565b005b3480156104b457600080fd5b506104cf60048036038101906104ca9190612ba9565b6123be565b005b3480156104dd57600080fd5b506104e66125d1565b6040516104f39190612b8e565b60405180910390f35b60006005805490508310610545576040517f08c379a000000000000000000000000000000000000000000000000000000000815260040161053c90612e3a565b60405180910390fd5b6005838154811061055957610558612e5a565b5b90600052602060002090600c0201600901826040516105789190612ec5565b908152602001604051809103902060009054906101000a900460ff16905092915050565b60008054906101000a900473ffffffffffffffffffffffffffffffffffffffff1673ffffffffffffffffffffffffffffffffffffffff163373ffffffffffffffffffffffffffffffffffffffff161461062a576040517f08c379a000000000000000000000000000000000000000000000000000000000815260040161062190612f4e565b60405180910390fd5b60006005805490509050600060056001816001815401808255809150500390600052602060002090600c0201905081816000018190555083816001019081610672919061317a565b5082816002019081610684919061317a565b504281600301819055506040518060400160405280600481526020017f4f70656e000000000000000000000000000000000000000000000000000000008152508160040190816106d4919061317a565b50600081600a0160006101000a81548160ff021916908315150217905550600181600b01819055507fc7fd2cb153a3fcd780e74725f8dc07253618354de3c9da6666feb1fa04cdf5dd828585426040516107319493929190613298565b60405180910390a150505050565b6060600060058054905067ffffffffffffffff811115610762576107616126af565b5b60405190808252806020026020018201604052801561079b57816020015b6107886125f5565b8152602001906001900390816107805790505b50905060005b600580549050811015610a1b576000600582815481106107c4576107c3612e5a565b5b90600052602060002090600c02019050604051806101400160405280826000015481526020018260010180546107f990612f9d565b80601f016020809104026020016040519081016040528092919081815260200182805461082590612f9d565b80156108725780601f1061084757610100808354040283529160200191610872565b820191906000526020600020905b81548152906001019060200180831161085557829003601f168201915b5050505050815260200182600201805461088b90612f9d565b80601f01602080910402602001604051908101604052809291908181526020018280546108b790612f9d565b80156109045780601f106108d957610100808354040283529160200191610904565b820191906000526020600020905b8154815290600101906020018083116108e757829003601f168201915b505050505081526020018260030154815260200182600401805461092790612f9d565b80601f016020809104026020016040519081016040528092919081815260200182805461095390612f9d565b80156109a05780601f10610975576101008083540402835291602001916109a0565b820191906000526020600020905b81548152906001019060200180831161098357829003601f168201915b505050505081526020018260050154815260200182600601548152602001826007015481526020018260080160009054906101000a900460ff161515815260200182600b01548152508383815181106109fc576109fb612e5a565b5b6020026020010181905250508080610a139061332d565b9150506107a1565b508091505090565b600160009054906101000a900473ffffffffffffffffffffffffffffffffffffffff1681565b60008054906101000a900473ffffffffffffffffffffffffffffffffffffffff1673ffffffffffffffffffffffffffffffffffffffff163373ffffffffffffffffffffffffffffffffffffffff1614610ad7576040517f08c379a0000000000000000000000000000000000000000000000000000000008152600401610ace90612f4e565b60405180910390fd5b6005805490508110610b1e576040517f08c379a0000000000000000000000000000000000000000000000000000000008152600401610b15906133c1565b60405180910390fd5b60058181548110610b3257610b31612e5a565b5b90600052602060002090600c0201600b016000815480929190610b549061332d565b919050555050565b60606000805b600580549050811015610c2457848051906020012060058281548110610b8b57610b8a612e5a565b5b90600052602060002090600c0201600401604051610ba99190613484565b6040518091039020148015610bfd5750838051906020012060058281548110610bd557610bd4612e5a565b5b90600052602060002090600c0201600101604051610bf39190613484565b6040518091039020145b15610c11578180610c0d9061332d565b9250505b8080610c1c9061332d565b915050610b62565b5060008167ffffffffffffffff811115610c4157610c406126af565b5b604051908082528060200260200182016040528015610c7a57816020015b610c676125f5565b815260200190600190039081610c5f5790505b5090506000805b600580549050811015610f9d57868051906020012060058281548110610caa57610ca9612e5a565b5b90600052602060002090600c0201600401604051610cc89190613484565b6040518091039020148015610d1c5750858051906020012060058281548110610cf457610cf3612e5a565b5b90600052602060002090600c0201600101604051610d129190613484565b6040518091039020145b15610f8a57600060058281548110610d3757610d36612e5a565b5b90600052602060002090600c0201905060405180610140016040528082600001548152602001826001018054610d6c90612f9d565b80601f0160208091040260200160405190810160405280929190818152602001828054610d9890612f9d565b8015610de55780601f10610dba57610100808354040283529160200191610de5565b820191906000526020600020905b815481529060010190602001808311610dc857829003601f168201915b50505050508152602001826002018054610dfe90612f9d565b80601f0160208091040260200160405190810160405280929190818152602001828054610e2a90612f9d565b8015610e775780601f10610e4c57610100808354040283529160200191610e77565b820191906000526020600020905b815481529060010190602001808311610e5a57829003601f168201915b5050505050815260200182600301548152602001826004018054610e9a90612f9d565b80601f0160208091040260200160405190810160405280929190818152602001828054610ec690612f9d565b8015610f135780601f10610ee857610100808354040283529160200191610f13565b820191906000526020600020905b815481529060010190602001808311610ef657829003601f168201915b505050505081526020018260050154815260200182600601548152602001826007015481526020018260080160009054906101000a900460ff161515815260200182600b0154815250848481518110610f6f57610f6e612e5a565b5b60200260200101819052508280610f859061332d565b935050505b8080610f959061332d565b915050610c81565b5081935050505092915050565b6005805490508310610ff1576040517f08c379a0000000000000000000000000000000000000000000000000000000008152600401610fe890612e3a565b60405180910390fd5b60006005848154811061100757611006612e5a565b5b90600052602060002090600c020190506000816005015414158015611030575080600501544211155b61106f576040517f08c379a0000000000000000000000000000000000000000000000000000000008152600401611066906134e7565b60405180910390fd5b80600901836040516110819190612ec5565b908152602001604051809103902060009054906101000a900460ff16156110dd576040517f08c379a00000000000000000000000000000000000000000000000000000000081526004016110d490613553565b60405180910390fd5b600181600901846040516110f19190612ec5565b908152602001604051809103902060006101000a81548160ff021916908315150217905550811561113b578060060160008154809291906111319061332d565b9190505550611156565b8060070160008154809291906111509061332d565b91905055505b7fb5918aa6428672f87627b229411118672dd5a88aec24eba7fbd7afcf5d733f6184848460405161118993929190613573565b60405180910390a17fcd0d8f8b1a61cba26d848017b03f4fbe99b56f99fd86e346323d2b3b3d43a427836040516111c091906135fd565b60405180910390a150505050565b60008054906101000a900473ffffffffffffffffffffffffffffffffffffffff1673ffffffffffffffffffffffffffffffffffffffff163373ffffffffffffffffffffffffffffffffffffffff161461125c576040517f08c379a000000000000000000000000000000000000000000000000000000000815260040161125390612f4e565b60405180910390fd5b60058054905081106112a3576040517f08c379a000000000000000000000000000000000000000000000000000000000815260040161129a90612e3a565b60405180910390fd5b6000600582815481106112b9576112b8612e5a565b5b90600052602060002090600c020190508060080160009054906101000a900460ff161561131b576040517f08c379a00000000000000000000000000000000000000000000000000000000081526004016113129061367e565b60405180910390fd5b6000816005015414611362576040517f08c379a0000000000000000000000000000000000000000000000000000000008152600401611359906136ea565b60405180910390fd5b60035442611370919061370a565b81600501819055505050565b60008054906101000a900473ffffffffffffffffffffffffffffffffffffffff1673ffffffffffffffffffffffffffffffffffffffff163373ffffffffffffffffffffffffffffffffffffffff161461140a576040517f08c379a000000000000000000000000000000000000000000000000000000000815260040161140190612f4e565b60405180910390fd5b6005805490508110611451576040517f08c379a000000000000000000000000000000000000000000000000000000000815260040161144890612e3a565b60405180910390fd5b60006005828154811061146757611466612e5a565b5b90600052602060002090600c02019050806005015442116114bd576040517f08c379a00000000000000000000000000000000000000000000000000000000081526004016114b49061378a565b60405180910390fd5b8060080160009054906101000a900460ff161561150f576040517f08c379a0000000000000000000000000000000000000000000000000000000008152600401611506906137f6565b60405180910390fd5b60018160080160006101000a81548160ff0219169083151502179055508060060154816007015411156115bb576040518060400160405280600481526020017f46616b6500000000000000000000000000000000000000000000000000000000815250816004019081611582919061317a565b507f8007c32a04dd6bdb3bc93d242e3a71619aa189b9147d3f839151ea68b7872e54826040516115b29190612dd3565b60405180910390a15b5050565b60008054906101000a900473ffffffffffffffffffffffffffffffffffffffff1673ffffffffffffffffffffffffffffffffffffffff163373ffffffffffffffffffffffffffffffffffffffff161461164d576040517f08c379a000000000000000000000000000000000000000000000000000000000815260040161164490612f4e565b60405180910390fd5b6002811015611691576040517f08c379a000000000000000000000000000000000000000000000000000000000815260040161168890613862565b60405180910390fd5b62015180816116a09190613882565b60038190555050565b600581815481106116b957600080fd5b90600052602060002090600c02016000915090508060000154908060010180546116e290612f9d565b80601f016020809104026020016040519081016040528092919081815260200182805461170e90612f9d565b801561175b5780601f106117305761010080835404028352916020019161175b565b820191906000526020600020905b81548152906001019060200180831161173e57829003601f168201915b50505050509080600201805461177090612f9d565b80601f016020809104026020016040519081016040528092919081815260200182805461179c90612f9d565b80156117e95780601f106117be576101008083540402835291602001916117e9565b820191906000526020600020905b8154815290600101906020018083116117cc57829003601f168201915b50505050509080600301549080600401805461180490612f9d565b80601f016020809104026020016040519081016040528092919081815260200182805461183090612f9d565b801561187d5780601f106118525761010080835404028352916020019161187d565b820191906000526020600020905b81548152906001019060200180831161186057829003601f168201915b5050505050908060050154908060060154908060070154908060080160009054906101000a900460ff169080600a0160009054906101000a900460ff169080600b015490508b565b60606000805b600580549050811015611941578380519060200120600582815481106118f4576118f3612e5a565b5b90600052602060002090600c02016001016040516119129190613484565b60405180910390200361192e57818061192a9061332d565b9250505b80806119399061332d565b9150506118cb565b5060008167ffffffffffffffff81111561195e5761195d6126af565b5b60405190808252806020026020018201604052801561199757816020015b6119846125f5565b81526020019060019003908161197c5790505b5090506000805b600580549050811015611c6e578580519060200120600582815481106119c7576119c6612e5a565b5b90600052602060002090600c02016001016040516119e59190613484565b604051809103902003611c5b57600060058281548110611a0857611a07612e5a565b5b90600052602060002090600c0201905060405180610140016040528082600001548152602001826001018054611a3d90612f9d565b80601f0160208091040260200160405190810160405280929190818152602001828054611a6990612f9d565b8015611ab65780601f10611a8b57610100808354040283529160200191611ab6565b820191906000526020600020905b815481529060010190602001808311611a9957829003601f168201915b50505050508152602001826002018054611acf90612f9d565b80601f0160208091040260200160405190810160405280929190818152602001828054611afb90612f9d565b8015611b485780601f10611b1d57610100808354040283529160200191611b48565b820191906000526020600020905b815481529060010190602001808311611b2b57829003601f168201915b5050505050815260200182600301548152602001826004018054611b6b90612f9d565b80601f0160208091040260200160405190810160405280929190818152602001828054611b9790612f9d565b8015611be45780601f10611bb957610100808354040283529160200191611be4565b820191906000526020600020905b815481529060010190602001808311611bc757829003601f168201915b505050505081526020018260050154815260200182600601548152602001826007015481526020018260080160009054906101000a900460ff161515815260200182600b0154815250848481518110611c4057611c3f612e5a565b5b60200260200101819052508280611c569061332d565b935050505b8080611c669061332d565b91505061199e565b50819350505050919050565b60606000805b600580549050811015611cf657838051906020012060058281548110611ca957611ca8612e5a565b5b90600052602060002090600c0201600401604051611cc79190613484565b604051809103902003611ce3578180611cdf9061332d565b9250505b8080611cee9061332d565b915050611c80565b5060008167ffffffffffffffff811115611d1357611d126126af565b5b604051908082528060200260200182016040528015611d4c57816020015b611d396125f5565b815260200190600190039081611d315790505b5090506000805b60058054905081101561202357858051906020012060058281548110611d7c57611d7b612e5a565b5b90600052602060002090600c0201600401604051611d9a9190613484565b60405180910390200361201057600060058281548110611dbd57611dbc612e5a565b5b90600052602060002090600c0201905060405180610140016040528082600001548152602001826001018054611df290612f9d565b80601f0160208091040260200160405190810160405280929190818152602001828054611e1e90612f9d565b8015611e6b5780601f10611e4057610100808354040283529160200191611e6b565b820191906000526020600020905b815481529060010190602001808311611e4e57829003601f168201915b50505050508152602001826002018054611e8490612f9d565b80601f0160208091040260200160405190810160405280929190818152602001828054611eb090612f9d565b8015611efd5780601f10611ed257610100808354040283529160200191611efd565b820191906000526020600020905b815481529060010190602001808311611ee057829003601f168201915b5050505050815260200182600301548152602001826004018054611f2090612f9d565b80601f0160208091040260200160405190810160405280929190818152602001828054611f4c90612f9d565b8015611f995780601f10611f6e57610100808354040283529160200191611f99565b820191906000526020600020905b815481529060010190602001808311611f7c57829003601f168201915b505050505081526020018260050154815260200182600601548152602001826007015481526020018260080160009054906101000a900460ff161515815260200182600b0154815250848481518110611ff557611ff4612e5a565b5b6020026020010181905250828061200b9061332d565b935050505b808061201b9061332d565b915050611d53565b50819350505050919050565b6000600580549050905090565b60035481565b60025481565b60045481565b60008054906101000a900473ffffffffffffffffffffffffffffffffffffffff1673ffffffffffffffffffffffffffffffffffffffff163373ffffffffffffffffffffffffffffffffffffffff16146120dc576040517f08c379a00000000000000000000000000000000000000000000000000000000081526004016120d390612f4e565b60405180910390fd5b62015180816120eb9190613882565b60048190555050565b60008054906101000a900473ffffffffffffffffffffffffffffffffffffffff1673ffffffffffffffffffffffffffffffffffffffff163373ffffffffffffffffffffffffffffffffffffffff1614612182576040517f08c379a000000000000000000000000000000000000000000000000000000000815260040161217990612f4e565b60405180910390fd5b60005b6005805490508110156123bb576000600582815481106121a8576121a7612e5a565b5b90600052602060002090600c020190506040518060400160405280600481526020017f4f70656e0000000000000000000000000000000000000000000000000000000081525080519060200120816004016040516122069190613484565b604051809103902014801561222a575080600a0160009054906101000a900460ff16155b801561224657506004548160030154612243919061370a565b42115b156123a7576040518060400160405280601481526020017f556e7265736f6c7665642050656e616c697a6564000000000000000000000000815250816004019081612291919061317a565b50600181600a0160006101000a81548160ff021916908315150217905550600254471061236757600160009054906101000a900473ffffffffffffffffffffffffffffffffffffffff1673ffffffffffffffffffffffffffffffffffffffff166108fc6002549081150290604051600060405180830381858888f19350505050158015612322573d6000803e3d6000fd5b507f56a048f76d7d23db064bec96b2bb087f39d4c568423094579f2ab112b5e4d273816000015460025460405161235a9291906138c4565b60405180910390a16123a6565b7f56a048f76d7d23db064bec96b2bb087f39d4c568423094579f2ab112b5e4d2738160000154600060405161239d929190613928565b60405180910390a15b5b5080806123b39061332d565b915050612185565b50565b60008054906101000a900473ffffffffffffffffffffffffffffffffffffffff1673ffffffffffffffffffffffffffffffffffffffff163373ffffffffffffffffffffffffffffffffffffffff161461244c576040517f08c379a000000000000000000000000000000000000000000000000000000000815260040161244390612f4e565b60405180910390fd5b6005805490508110612493576040517f08c379a000000000000000000000000000000000000000000000000000000000815260040161248a90612e3a565b60405180910390fd5b6000600582815481106124a9576124a8612e5a565b5b90600052602060002090600c020190506040518060400160405280600481526020017f4f70656e0000000000000000000000000000000000000000000000000000000081525080519060200120816004016040516125079190613484565b60405180910390201461254f576040517f08c379a00000000000000000000000000000000000000000000000000000000081526004016125469061399d565b60405180910390fd5b6040518060400160405280600881526020017f5265736f6c766564000000000000000000000000000000000000000000000000815250816004019081612595919061317a565b507fd26d73beab97391bb9b226331b35668847e983fc340816389ece17cac75fd2b2826040516125c59190612dd3565b60405180910390a15050565b60008054906101000a900473ffffffffffffffffffffffffffffffffffffffff1681565b6040518061014001604052806000815260200160608152602001606081526020016000815260200160608152602001600081526020016000815260200160008152602001600015158152602001600081525090565b6000604051905090565b600080fd5b600080fd5b6000819050919050565b6126718161265e565b811461267c57600080fd5b50565b60008135905061268e81612668565b92915050565b600080fd5b600080fd5b6000601f19601f8301169050919050565b7f4e487b7100000000000000000000000000000000000000000000000000000000600052604160045260246000fd5b6126e78261269e565b810181811067ffffffffffffffff82111715612706576127056126af565b5b80604052505050565b600061271961264a565b905061272582826126de565b919050565b600067ffffffffffffffff821115612745576127446126af565b5b61274e8261269e565b9050602081019050919050565b82818337600083830152505050565b600061277d6127788461272a565b61270f565b90508281526020810184848401111561279957612798612699565b5b6127a484828561275b565b509392505050565b600082601f8301126127c1576127c0612694565b5b81356127d184826020860161276a565b91505092915050565b600080604083850312156127f1576127f0612654565b5b60006127ff8582860161267f565b925050602083013567ffffffffffffffff8111156128205761281f612659565b5b61282c858286016127ac565b9150509250929050565b60008115159050919050565b61284b81612836565b82525050565b60006020820190506128666000830184612842565b92915050565b6000806040838503121561288357612882612654565b5b600083013567ffffffffffffffff8111156128a1576128a0612659565b5b6128ad858286016127ac565b925050602083013567ffffffffffffffff8111156128ce576128cd612659565b5b6128da858286016127ac565b9150509250929050565b600081519050919050565b600082825260208201905092915050565b6000819050602082019050919050565b6129198161265e565b82525050565b600081519050919050565b600082825260208201905092915050565b60005b8381101561295957808201518184015260208101905061293e565b60008484015250505050565b60006129708261291f565b61297a818561292a565b935061298a81856020860161293b565b6129938161269e565b840191505092915050565b6129a781612836565b82525050565b6000610140830160008301516129c66000860182612910565b50602083015184820360208601526129de8282612965565b915050604083015184820360408601526129f88282612965565b9150506060830151612a0d6060860182612910565b5060808301518482036080860152612a258282612965565b91505060a0830151612a3a60a0860182612910565b5060c0830151612a4d60c0860182612910565b5060e0830151612a6060e0860182612910565b50610100830151612a7561010086018261299e565b50610120830151612a8a610120860182612910565b508091505092915050565b6000612aa183836129ad565b905092915050565b6000602082019050919050565b6000612ac1826128e4565b612acb81856128ef565b935083602082028501612add85612900565b8060005b85811015612b195784840389528151612afa8582612a95565b9450612b0583612aa9565b925060208a01995050600181019050612ae1565b50829750879550505050505092915050565b60006020820190508181036000830152612b458184612ab6565b905092915050565b600073ffffffffffffffffffffffffffffffffffffffff82169050919050565b6000612b7882612b4d565b9050919050565b612b8881612b6d565b82525050565b6000602082019050612ba36000830184612b7f565b92915050565b600060208284031215612bbf57612bbe612654565b5b6000612bcd8482850161267f565b91505092915050565b612bdf81612836565b8114612bea57600080fd5b50565b600081359050612bfc81612bd6565b92915050565b600080600060608486031215612c1b57612c1a612654565b5b6000612c298682870161267f565b935050602084013567ffffffffffffffff811115612c4a57612c49612659565b5b612c56868287016127ac565b9250506040612c6786828701612bed565b9150509250925092565b612c7a8161265e565b82525050565b600082825260208201905092915050565b6000612c9c8261291f565b612ca68185612c80565b9350612cb681856020860161293b565b612cbf8161269e565b840191505092915050565b600061016082019050612ce0600083018e612c71565b8181036020830152612cf2818d612c91565b90508181036040830152612d06818c612c91565b9050612d15606083018b612c71565b8181036080830152612d27818a612c91565b9050612d3660a0830189612c71565b612d4360c0830188612c71565b612d5060e0830187612c71565b612d5e610100830186612842565b612d6c610120830185612842565b612d7a610140830184612c71565b9c9b505050505050505050505050565b600060208284031215612da057612d9f612654565b5b600082013567ffffffffffffffff811115612dbe57612dbd612659565b5b612dca848285016127ac565b91505092915050565b6000602082019050612de86000830184612c71565b92915050565b7f496e76616c696420636f6d706c61696e74000000000000000000000000000000600082015250565b6000612e24601183612c80565b9150612e2f82612dee565b602082019050919050565b60006020820190508181036000830152612e5381612e17565b9050919050565b7f4e487b7100000000000000000000000000000000000000000000000000000000600052603260045260246000fd5b600081905092915050565b6000612e9f8261291f565b612ea98185612e89565b9350612eb981856020860161293b565b80840191505092915050565b6000612ed18284612e94565b915081905092915050565b7f4f6e6c792061646d696e2063616e20706572666f726d2074686973206163746960008201527f6f6e000000000000000000000000000000000000000000000000000000000000602082015250565b6000612f38602283612c80565b9150612f4382612edc565b604082019050919050565b60006020820190508181036000830152612f6781612f2b565b9050919050565b7f4e487b7100000000000000000000000000000000000000000000000000000000600052602260045260246000fd5b60006002820490506001821680612fb557607f821691505b602082108103612fc857612fc7612f6e565b5b50919050565b60008190508160005260206000209050919050565b60006020601f8301049050919050565b600082821b905092915050565b6000600883026130307fffffffffffffffffffffffffffffffffffffffffffffffffffffffffffffffff82612ff3565b61303a8683612ff3565b95508019841693508086168417925050509392505050565b6000819050919050565b600061307761307261306d8461265e565b613052565b61265e565b9050919050565b6000819050919050565b6130918361305c565b6130a561309d8261307e565b848454613000565b825550505050565b600090565b6130ba6130ad565b6130c5818484613088565b505050565b5b818110156130e9576130de6000826130b2565b6001810190506130cb565b5050565b601f82111561312e576130ff81612fce565b61310884612fe3565b81016020851015613117578190505b61312b61312385612fe3565b8301826130ca565b50505b505050565b600082821c905092915050565b600061315160001984600802613133565b1980831691505092915050565b600061316a8383613140565b9150826002028217905092915050565b6131838261291f565b67ffffffffffffffff81111561319c5761319b6126af565b5b6131a68254612f9d565b6131b18282856130ed565b600060209050601f8311600181146131e457600084156131d2578287015190505b6131dc858261315e565b865550613244565b601f1984166131f286612fce565b60005b8281101561321a578489015182556001820191506020850194506020810190506131f5565b868310156132375784890151613233601f891682613140565b8355505b6001600288020188555050505b505050505050565b7f4f70656e00000000000000000000000000000000000000000000000000000000600082015250565b6000613282600483612c80565b915061328d8261324c565b602082019050919050565b600060a0820190506132ad6000830187612c71565b81810360208301526132bf8186612c91565b905081810360408301526132d38185612c91565b90506132e26060830184612c71565b81810360808301526132f381613275565b905095945050505050565b7f4e487b7100000000000000000000000000000000000000000000000000000000600052601160045260246000fd5b60006133388261265e565b91507fffffffffffffffffffffffffffffffffffffffffffffffffffffffffffffffff820361336a576133696132fe565b5b600182019050919050565b7f496e76616c696420636f6d706c61696e74204944000000000000000000000000600082015250565b60006133ab601483612c80565b91506133b682613375565b602082019050919050565b600060208201905081810360008301526133da8161339e565b9050919050565b600081905092915050565b60008190508160005260206000209050919050565b6000815461340e81612f9d565b61341881866133e1565b9450600182166000811461343357600181146134485761347b565b60ff198316865281151582028601935061347b565b613451856133ec565b60005b8381101561347357815481890152600182019150602081019050613454565b838801955050505b50505092915050565b60006134908284613401565b915081905092915050565b7f566f74696e67206e6f7420616374697665000000000000000000000000000000600082015250565b60006134d1601183612c80565b91506134dc8261349b565b602082019050919050565b60006020820190508181036000830152613500816134c4565b9050919050565b7f416c726561647920766f74656400000000000000000000000000000000000000600082015250565b600061353d600d83612c80565b915061354882613507565b602082019050919050565b6000602082019050818103600083015261356c81613530565b9050919050565b60006060820190506135886000830186612c71565b818103602083015261359a8185612c91565b90506135a96040830184612842565b949350505050565b7f466f6f6442797465000000000000000000000000000000000000000000000000600082015250565b60006135e7600883612c80565b91506135f2826135b1565b602082019050919050565b600060408201905081810360008301526136178184612c91565b9050818103602083015261362a816135da565b905092915050565b7f566f74696e6720616c72656164792066696e616c697a65640000000000000000600082015250565b6000613668601883612c80565b915061367382613632565b602082019050919050565b600060208201905081810360008301526136978161365b565b9050919050565b7f566f74696e6720616c7265616479207374617274656400000000000000000000600082015250565b60006136d4601683612c80565b91506136df8261369e565b602082019050919050565b60006020820190508181036000830152613703816136c7565b9050919050565b60006137158261265e565b91506137208361265e565b9250828201905080821115613738576137376132fe565b5b92915050565b7f566f74696e67206f6e676f696e67000000000000000000000000000000000000600082015250565b6000613774600e83612c80565b915061377f8261373e565b602082019050919050565b600060208201905081810360008301526137a381613767565b9050919050565b7f416c72656164792066696e616c697a6564000000000000000000000000000000600082015250565b60006137e0601183612c80565b91506137eb826137aa565b602082019050919050565b6000602082019050818103600083015261380f816137d3565b9050919050565b7f4d696e696d756d20322064617973207265717569726564000000000000000000600082015250565b600061384c601783612c80565b915061385782613816565b602082019050919050565b6000602082019050818103600083015261387b8161383f565b9050919050565b600061388d8261265e565b91506138988361265e565b92508282026138a68161265e565b915082820484148315176138bd576138bc6132fe565b5b5092915050565b60006040820190506138d96000830185612c71565b6138e66020830184612c71565b9392505050565b6000819050919050565b600061391261390d613908846138ed565b613052565b61265e565b9050919050565b613922816138f7565b82525050565b600060408201905061393d6000830185612c71565b61394a6020830184613919565b9392505050565b7f4e6f74206f70656e000000000000000000000000000000000000000000000000600082015250565b6000613987600883612c80565b915061399282613951565b602082019050919050565b600060208201905081810360008301526139b68161397a565b905091905056fea2646970667358221220a462466888f48bebc8b0625b5d89b0db1bbd8572cc2c42202ccf7afee63432e464736f6c63430008130033",
  "linkReferences": {},
  "deployedLinkReferences": {}
}